{"abi":[{"type":"constructor","inputs":[],"stateMutability":"nonpayable"},{"type":"function","name":"DOMAIN_SEPARATOR","inputs":[],"outputs":[{"name":"","type":"bytes32","internalType":"bytes32"}],"stateMutability":"view"},{"type":"function","name":"UPGRADE_INTERFACE_VERSION","inputs":[],"outputs":[{"name":"","type":"string","internalType":"string"}],"stateMutability":"view"},{"type":"function","name":"allowance","inputs":[{"name":"owner","type":"address","internalType":"address"},{"name":"spender","type":"address","internalType":"address"}],"outputs":[{"name":"","type":"uint256","internalType":"uint256"}],"stateMutability":"view"},{"type":"function","name":"approve","inputs":[{"name":"spender","type":"address","internalType":"address"},{"name":"value","type":"uint256","internalType":"uint256"}],"outputs":[{"name":"","type":"bool","internalType":"bool"}],"stateMutability":"nonpayable"},{"type":"function","name":"balanceOf","inputs":[{"name":"account","type":"address","internalType":"address"}],"outputs":[{"name":"","type":"uint256","internalType":"uint256"}],"stateMutability":"view"},{"type":"function","name":"burnShares","inputs":[{"name":"from","type":"address","internalType":"address"},{"name":"shares_","type":"uint256","internalType":"uint256"}],"outputs":[],"stateMutability":"nonpayable"},{"type":"function","name":"convertToExternal","inputs":[{"name":"shares_","type":"uint256","internalType":"uint256"}],"outputs":[{"name":"","type":"uint256","internalType":"uint256"}],"stateMutability":"view"},{"type":"function","name":"convertToShares","inputs":[{"name":"externalAmt","type":"uint256","internalType":"uint256"}],"outputs":[{"name":"","type":"uint256","internalType":"uint256"}],"stateMutability":"view"},{"type":"function","name":"decimals","inputs":[],"outputs":[{"name":"","type":"uint8","internalType":"uint8"}],"stateMutability":"pure"},{"type":"function","name":"initialize","inputs":[{"name":"name_","type":"string","internalType":"string"},{"name":"symbol_","type":"string","internalType":"string"},{"name":"owner_","type":"address","internalType":"address"}],"outputs":[],"stateMutability":"nonpayable"},{"type":"function","name":"mintShares","inputs":[{"name":"to","type":"address","internalType":"address"},{"name":"shares_","type":"uint256","internalType":"uint256"}],"outputs":[],"stateMutability":"nonpayable"},{"type":"function","name":"name","inputs":[],"outputs":[{"name":"","type":"string","internalType":"string"}],"stateMutability":"view"},{"type":"function","name":"nonces","inputs":[{"name":"owner","type":"address","internalType":"address"}],"outputs":[{"name":"","type":"uint256","internalType":"uint256"}],"stateMutability":"view"},{"type":"function","name":"onIndexUpdated","inputs":[{"name":"newIndex","type":"uint256","internalType":"uint256"}],"outputs":[],"stateMutability":"nonpayable"},{"type":"function","name":"owner","inputs":[],"outputs":[{"name":"","type":"address","internalType":"address"}],"stateMutability":"view"},{"type":"function","name":"permit","inputs":[{"name":"owner","type":"address","internalType":"address"},{"name":"spender","type":"address","internalType":"address"},{"name":"value","type":"uint256","internalType":"uint256"},{"name":"deadline","type":"uint256","internalType":"uint256"},{"name":"v","type":"uint8","internalType":"uint8"},{"name":"r","type":"bytes32","internalType":"bytes32"},{"name":"s","type":"bytes32","internalType":"bytes32"}],"outputs":[],"stateMutability":"nonpayable"},{"type":"function","name":"pool","inputs":[],"outputs":[{"name":"","type":"address","internalType":"address"}],"stateMutability":"view"},{"type":"function","name":"poolIndex","inputs":[],"outputs":[{"name":"","type":"uint256","internalType":"uint256"}],"stateMutability":"view"},{"type":"function","name":"proxiableUUID","inputs":[],"outputs":[{"name":"","type":"bytes32","internalType":"bytes32"}],"stateMutability":"view"},{"type":"function","name":"renounceOwnership","inputs":[],"outputs":[],"stateMutability":"nonpayable"},{"type":"function","name":"setPool","inputs":[{"name":"pool_","type":"address","internalType":"address"}],"outputs":[],"stateMutability":"nonpayable"},{"type":"function","name":"sharesOf","inputs":[{"name":"account","type":"address","internalType":"address"}],"outputs":[{"name":"","type":"uint256","internalType":"uint256"}],"stateMutability":"view"},{"type":"function","name":"symbol","inputs":[],"outputs":[{"name":"","type":"string","internalType":"string"}],"stateMutability":"view"},{"type":"function","name":"sync","inputs":[],"outputs":[{"name":"newIndex","type":"uint256","internalType":"uint256"}],"stateMutability":"nonpayable"},{"type":"function","name":"totalShares","inputs":[],"outputs":[{"name":"","type":"uint256","internalType":"uint256"}],"stateMutability":"view"},{"type":"function","name":"totalSupply","inputs":[],"outputs":[{"name":"","type":"uint256","internalType":"uint256"}],"stateMutability":"view"},{"type":"function","name":"transfer","inputs":[{"name":"to","type":"address","internalType":"address"},{"name":"amount","type":"uint256","internalType":"uint256"}],"outputs":[{"name":"","type":"bool","internalType":"bool"}],"stateMutability":"nonpayable"},{"type":"function","name":"transferFrom","inputs":[{"name":"from","type":"address","internalType":"address"},{"name":"to","type":"address","internalType":"address"},{"name":"amount","type":"uint256","internalType":"uint256"}],"outputs":[{"name":"","type":"bool","internalType":"bool"}],"stateMutability":"nonpayable"},{"type":"function","name":"transferOwnership","inputs":[{"name":"newOwner","type":"address","internalType":"address"}],"outputs":[],"stateMutability":"nonpayable"},{"type":"function","name":"upgradeToAndCall","inputs":[{"name":"newImplementation","type":"address","internalType":"address"},{"name":"data","type":"bytes","internalType":"bytes"}],"outputs":[],"stateMutability":"payable"},{"type":"event","name":"Approval","inputs":[{"name":"owner","type":"address","indexed":true,"internalType":"address"},{"name":"spender","type":"address","indexed":true,"internalType":"address"},{"name":"value","type":"uint256","indexed":false,"internalType":"uint256"}],"anonymous":false},{"type":"event","name":"BurnShares","inputs":[{"name":"from","type":"address","indexed":true,"internalType":"address"},{"name":"shares","type":"uint256","indexed":false,"internalType":"uint256"}],"anonymous":false},{"type":"event","name":"Initialized","inputs":[{"name":"version","type":"uint64","indexed":false,"internalType":"uint64"}],"anonymous":false},{"type":"event","name":"MintShares","inputs":[{"name":"to","type":"address","indexed":true,"internalType":"address"},{"name":"shares","type":"uint256","indexed":false,"internalType":"uint256"}],"anonymous":false},{"type":"event","name":"OwnershipTransferred","inputs":[{"name":"previousOwner","type":"address","indexed":true,"internalType":"address"},{"name":"newOwner","type":"address","indexed":true,"internalType":"address"}],"anonymous":false},{"type":"event","name":"PoolSet","inputs":[{"name":"pool","type":"address","indexed":true,"internalType":"address"}],"anonymous":false},{"type":"event","name":"Rebased","inputs":[{"name":"newIndex","type":"uint256","indexed":false,"internalType":"uint256"}],"anonymous":false},{"type":"event","name":"Transfer","inputs":[{"name":"from","type":"address","indexed":true,"internalType":"address"},{"name":"to","type":"address","indexed":true,"internalType":"address"},{"name":"value","type":"uint256","indexed":false,"internalType":"uint256"}],"anonymous":false},{"type":"event","name":"Upgraded","inputs":[{"name":"implementation","type":"address","indexed":true,"internalType":"address"}],"anonymous":false},{"type":"error","name":"AddressEmptyCode","inputs":[{"name":"target","type":"address","internalType":"address"}]},{"type":"error","name":"ECDSAInvalidSignature","inputs":[]},{"type":"error","name":"ECDSAInvalidSignatureLength","inputs":[{"name":"length","type":"uint256","internalType":"uint256"}]},{"type":"error","name":"ECDSAInvalidSignatureS","inputs":[{"name":"s","type":"bytes32","internalType":"bytes32"}]},{"type":"error","name":"ERC1967InvalidImplementation","inputs":[{"name":"implementation","type":"address","internalType":"address"}]},{"type":"error","name":"ERC1967NonPayable","inputs":[]},{"type":"error","name":"FailedCall","inputs":[]},{"type":"error","name":"InsufficientShares","inputs":[]},{"type":"error","name":"InvalidIndex","inputs":[]},{"type":"error","name":"InvalidInitialization","inputs":[]},{"type":"error","name":"NotCore","inputs":[]},{"type":"error","name":"NotInitializing","inputs":[]},{"type":"error","name":"OwnableInvalidOwner","inputs":[{"name":"owner","type":"address","internalType":"address"}]},{"type":"error","name":"OwnableUnauthorizedAccount","inputs":[{"name":"account","type":"address","internalType":"address"}]},{"type":"error","name":"PermitExpired","inputs":[]},{"type":"error","name":"UUPSUnauthorizedCallContext","inputs":[]},{"type":"error","name":"UUPSUnsupportedProxiableUUID","inputs":[{"name":"slot","type":"bytes32","internalType":"bytes32"}]},{"type":"error","name":"ZeroAddress","inputs":[]}],"bytecode":{"object":"0x60a080604052346100cc57306080527ff0c57e16840df040f15088dc2f81fe391c3923bec73e23a9662efc9c229c6a009081549060ff8260401c166100bd57506001600160401b036002600160401b031982821601610078575b604051611c7890816100d282396080518181816109370152610ab20152f35b6001600160401b031990911681179091556040519081527fc7f505b2f371ae2175ee4913f4499e1f2633a7b5936321eed1cdaeb6115181d290602090a1388080610059565b63f92ee8a960e01b8152600490fd5b600080fdfe608060408181526004918236101561001657600080fd5b600090813560e01c90816306fdde031461155057508063077f224a146110ff578063095ea7b314611089578063111d00e514610ff757806316f0115b14610fce57806318160ddd14610fa457806323b872dd14610dfc578063313ce56714610de05780633644e51514610dc35780633a98ef3914610da55780634437152a14610cc45780634ce272ee14610ca75780634f1ef28614610a61578063528c198a1461099b57806352d1902d1461092357806370a08231146108ce578063715018a6146108645780637ecebe001461082c5780638da5cb5b146107f657806395d89b4114610718578063a9059cbb14610644578063ad3cb1cc14610603578063c6e6f592146105d5578063cc04c6c514610592578063d505accf1461037e578063dd62ed3e14610335578063ee7a7c0414610252578063f2fde38b14610225578063f5eb42dc146101e95763fff6cae91461016e57600080fd5b346101e657806003193601126101e657506101876119aa565b9081156101d7576020925060095482036101a2575b51908152f35b8160095543600a557fa3e5fc7a6648da6157201f1e26fcbbfeee8088fb7914fb85edf2056040c234c5838251848152a161019c565b516363df817160e01b81529050fd5b80fd5b5090346102215760203660031901126102215760209181906001600160a01b0361021161168f565b1681526003845220549051908152f35b5080fd5b50346101e65760203660031901126101e65761024f61024261168f565b61024a611971565b6117d9565b80f35b50903461022157806003193601126102215761026c61168f565b60025460243592916001600160a01b039182163303610325571691828452600360205280828520541061031557600080516020611c238339815191529161030c6020928697868852600385528388206102c68382546117a9565b90556102d38282546117a9565b9055857f5c482005cb92f4606eb4f7244f8978adb96c9dfff9ab5c5be326273f0610fe45858551848152a26103066119aa565b90611a33565b9051908152a380f35b8151633999656760e01b81528590fd5b825163e2aae06b60e01b81528690fd5b5090346102215780600319360112610221578060209261035361168f565b61035b6116a5565b6001600160a01b0391821683526005865283832091168252845220549051908152f35b50913461058e5760e036600319011261058e5761039961168f565b6103a16116a5565b9260443590606435936084359360ff8516850361058a5785421161057b576001600160a01b039081169586158015610571575b610561576103e061195a565b90878a5260209660068852858b205499865192858a8501927f6e71edae12b1b97f4d1f60370fef10105fa2faae0126114a169c64845d6126c984528c8a870152169b8c606086015289608086015260a085015260c084015260c0835260e083019267ffffffffffffffff918185108386111761054e578489528151902061190160f01b610100830190815261010283019690965261012282015260428452610160019081118382101761053b57926104b4926104ab928b9695895260c4359260a43592519020611a8a565b90929192611b1a565b16036105095750907f8c5be1e5ebec7d5bd14f71427d1e84f3dd0314c0f7b2291e5b200ac8c7c3b92592918487526006835280872060018154019055600583528087208688528352818188205551908152a380f35b83606492519162461bcd60e51b8352820152600e60248201526d1a5b9d985b1a59081c195c9b5a5d60921b6044820152fd5b634e487b7160e01b8c526041865260248cfd5b634e487b7160e01b8e526041885260248efd5b835163d92e233d60e01b81528390fd5b50818816156103d4565b50905163068568f360e21b8152fd5b8780fd5b8280fd5b50346101e65760203660031901126101e657506105ad6119aa565b80156105c7576105c09060209335611a33565b9051908152f35b50516363df817160e01b8152fd5b50346101e65760203660031901126101e657506105f06119aa565b80156105c7576105c0906020933561191d565b509034610221578160031936011261022157805161064091610624826115c5565b60058252640352e302e360dc1b6020830152519182918261157c565b0390f35b50913461058e578160031936011261058e5761065e61168f565b6001600160a01b03169060243590821561070a5761067a6119aa565b80156106fb5761068a908361191d565b9033865260036020528185872054106106ed57506106cc84602096338152600388528181206106ba8582546117a9565b905585815260038852209182546117cc565b90558251908152600080516020611c23833981519152843392a35160018152f35b8451633999656760e01b8152fd5b5083516363df817160e01b8152fd5b835163d92e233d60e01b8152fd5b50346101e657806003193601126101e65781519080600180549061073b826116bb565b80865292602092600181169081156107c95750600114610771575b6106408688610767828903836115f7565b519182918261157c565b9350600184527fb10e2d527612073b26eecdfd717e6a320cf44b4afac2b0732d9fcbe2b7fa0cf65b8385106107b6575050505081016020016107678261064086610756565b8054868601840152938201938101610799565b90506106409795508693506020925061076794915060ff191682840152151560051b820101929486610756565b509034610221578160031936011261022157600080516020611c038339815191525490516001600160a01b039091168152602090f35b5090346102215760203660031901126102215760209181906001600160a01b0361085461168f565b1681526006845220549051908152f35b50346101e657806003193601126101e65761087d611971565b600080516020611c0383398151915280546001600160a01b0319811690915581906001600160a01b03167f8be0079c531659141344cd1fd0a4f28419497f9722a3daafe3b4186f6b6457e08280a380f35b50903461022157602036600319011261022157602091670de0b6b3a76400009061091b9083906001600160a01b0361090461168f565b1681526003865220546109156119aa565b9061190a565b049051908152f35b50346101e657806003193601126101e657507f00000000000000000000000000000000000000000000000000000000000000006001600160a01b0316300361098e57602090517f360894a13ba1a3210667c828492db98dca3e2076cc3735a920a3ca505d382bbc8152f35b5163703e46dd60e11b8152fd5b5091903461058e578060031936011261058e576109b661168f565b600254602435916001600160a01b039182163303610a515716928315610a4357849261030c83836109f9600080516020611c2383398151915296602096546117cc565b905586865260038452828620610a108282546117cc565b9055867fe0db2c42b942601357f9499d6f0520c824b2ce7513135a456b661d1d3e45de5e858551848152a26103066119aa565b825163d92e233d60e01b8152fd5b5050505163e2aae06b60e01b8152fd5b5091908060031936011261058e57610a7761168f565b9060243567ffffffffffffffff8111610ca35736602382011215610ca357610aa89036906024818701359101611635565b6001600160a01b037f00000000000000000000000000000000000000000000000000000000000000008116308114908115610c75575b50610c6557610aeb611971565b82516352d1902d60e01b81529084169360209182818881895afa889181610c32575b50610b29578451634c9c8ce360e01b8152808801879052602490fd5b7f360894a13ba1a3210667c828492db98dca3e2076cc3735a920a3ca505d382bbc96929591939690818103610c1c5750833b15610c055780546001600160a01b0319168217905583518792917fbc7cd75a20ee27fd9adebab32041f755214dbc6bffa90cc0225b39da2e5c2d3b8480a2865115610be8575050808585610bda97519101845af4913d15610bde573d610bcc610bc382611619565b925192836115f7565b81528581943d92013e611b9f565b5080f35b5060609250611b9f565b9450945050505034610bf957505080f35b63b398979f60e01b8152fd5b8451634c9c8ce360e01b8152808401839052602490fd5b83602491875191632a87526960e21b8352820152fd5b9091508381813d8311610c5e575b610c4a81836115f7565b81010312610c5a57519038610b0d565b8880fd5b503d610c40565b825163703e46dd60e11b81528590fd5b9050817f360894a13ba1a3210667c828492db98dca3e2076cc3735a920a3ca505d382bbc5416141538610ade565b8480fd5b5090346102215781600319360112610221576020906105c06119aa565b5091903461058e57602036600319011261058e57610ce061168f565b91610ce9611971565b6001600160a01b03928316928315610d9657600254908116610d60576001600160a01b0319168317600255610d1c6119aa565b918215610d5357505060095543600a557f025f89b99c8ce32af8da7624f4575b920a86ebf07870d85a9fb545fee349ddce8280a280f35b516363df817160e01b8152fd5b506020606492519162461bcd60e51b8352820152601060248201526f1c1bdbdb08185b1c9958591e481cd95d60821b6044820152fd5b50905163d92e233d60e01b8152fd5b50913461058e578260031936011261058e5760209250549051908152f35b5090346102215781600319360112610221576020906105c061195a565b5090346102215781600319360112610221576020905160128152f35b50913461058e57606036600319011261058e57610e1761168f565b90610e206116a5565b6001600160a01b039081169260443591908415610f94571691828652602095600587528581203382528752858120546000198103610ef0575b50610e626119aa565b8015610ee057610e72908461191d565b9184825260038852828783205410610ed25750918691610ec3878587600080516020611c23833981519152975260038652818120610eb18582546117a9565b905588815260038652209182546117cc565b90558551908152a35160018152f35b8651633999656760e01b8152fd5b86516363df817160e01b81528390fd5b838110610f515783908583526005895287832033845289520386822055838152600587528581203382528752858120548651908152847f8c5be1e5ebec7d5bd14f71427d1e84f3dd0314c0f7b2291e5b200ac8c7c3b925893393a338610e59565b865162461bcd60e51b8152808401899052601d60248201527f45524332303a20696e73756666696369656e7420616c6c6f77616e63650000006044820152606490fd5b855163d92e233d60e01b81528490fd5b50346101e657806003193601126101e65750670de0b6b3a764000061091b602093546109156119aa565b50903461022157816003193601126102215760025490516001600160a01b039091168152602090f35b5091903461058e57602036600319011261058e57600254823592906001600160a01b0316330361107b57821561106d57506009548203611035578280f35b816020917fa3e5fc7a6648da6157201f1e26fcbbfeee8088fb7914fb85edf2056040c234c59360095543600a5551908152a138808280f35b90516363df817160e01b8152fd5b905163e2aae06b60e01b8152fd5b50913461058e578160031936011261058e576110a361168f565b6001600160a01b03169060243590821561070a57508083602095338152600587528181208582528752205582519081527f8c5be1e5ebec7d5bd14f71427d1e84f3dd0314c0f7b2291e5b200ac8c7c3b925843392a35160018152f35b50913461058e57606036600319011261058e5767ffffffffffffffff8135818111610ca3576111319036908401611671565b9060243581811161154c576111499036908501611671565b604435926001600160a01b038416929183850361058a577ff0c57e16840df040f15088dc2f81fe391c3923bec73e23a9662efc9c229c6a009586549560ff878a1c16159585881697881580611545575b6001809a14908161153b575b159081611532575b506115225767ffffffffffffffff19811689178a5587611503575b50156114f4576111e2906111da611a49565b61024a611a49565b6111ea611a49565b82518481116114e157806111fe8b546116bb565b94601f95868111611474575b506020908683116001146113f7578c926113ec575b5050600019600383901b1c191690871b1789555b81519384116113d9575090829161124a86546116bb565b82811161136a575b5060209183116001146112ed5788926112e2575b5050600019600383901b1c191690831b1782555b4660085561128661184d565b600755670de0b6b3a764000060095543600a556112a1578380f35b7fc7f505b2f371ae2175ee4913f4499e1f2633a7b5936321eed1cdaeb6115181d29260209268ff000000000000000019815416905551908152a13880808380f35b015190503880611266565b8589528593507fb10e2d527612073b26eecdfd717e6a320cf44b4afac2b0732d9fcbe2b7fa0cf69190601f1984168a5b81811061135257508411611339575b505050811b01825561127a565b015160001960f88460031b161c1916905538808061132c565b8284015185558896909401936020938401930161131d565b909192508589527fb10e2d527612073b26eecdfd717e6a320cf44b4afac2b0732d9fcbe2b7fa0cf68380860160051c820192602087106113d0575b91869589929594930160051c01915b8281106113c2575050611252565b8b81558695508891016113b4565b925081926113a5565b634e487b7160e01b895260419052602488fd5b01519050388061121f565b8c80528993507f290decd9548b62a8d60345a988386fc84ba6bc95484008f6362f93160ef3e5639190601f1984168e5b81811061145c57508411611443575b505050811b018955611233565b015160001960f88460031b161c19169055388080611436565b8284015185558c969094019360209384019301611427565b9091508b80527f290decd9548b62a8d60345a988386fc84ba6bc95484008f6362f93160ef3e5638680850160051c820192602086106114d8575b918b91869594930160051c01915b8281106114ca57505061120a565b8e81558594508b91016114bc565b925081926114ae565b634e487b7160e01b8a526041825260248afd5b50875163d92e233d60e01b8152fd5b68ffffffffffffffffff191668010000000000000001178955386111c8565b8a5163f92ee8a960e01b81528490fd5b905015386111ad565b303b1591506111a5565b5087611199565b8580fd5b9050823461058e578260031936011261058e57610640925061076782611575816116f5565b03836115f7565b6020808252825181830181905290939260005b8281106115b157505060409293506000838284010152601f8019910116010190565b81810186015184820160400152850161158f565b6040810190811067ffffffffffffffff8211176115e157604052565b634e487b7160e01b600052604160045260246000fd5b90601f8019910116810190811067ffffffffffffffff8211176115e157604052565b67ffffffffffffffff81116115e157601f01601f191660200190565b92919261164182611619565b9161164f60405193846115f7565b82948184528183011161166c578281602093846000960137010152565b600080fd5b9080601f8301121561166c5781602061168c93359101611635565b90565b600435906001600160a01b038216820361166c57565b602435906001600160a01b038216820361166c57565b90600182811c921680156116eb575b60208310146116d557565b634e487b7160e01b600052602260045260246000fd5b91607f16916116ca565b9060009160005490611706826116bb565b808252916020906001908181169081156117845750600114611729575b50505050565b92939450600080527f290decd9548b62a8d60345a988386fc84ba6bc95484008f6362f93160ef3e563926000935b858510611771575050506020925001019038808080611723565b8054858501840152938201938101611757565b92505050602093945060ff929192191683830152151560051b01019038808080611723565b919082039182116117b657565b634e487b7160e01b600052601160045260246000fd5b919082018092116117b657565b6001600160a01b0390811690811561183457600080516020611c0383398151915280546001600160a01b031981168417909155167f8be0079c531659141344cd1fd0a4f28419497f9722a3daafe3b4186f6b6457e0600080a3565b604051631e4fbdf760e01b815260006004820152602490fd5b6040516118648161185d816116f5565b03826115f7565b60208151910120603160f81b602060405161187e816115c5565b60018152015260405160208101917f8b73e5d9978c4e0b6f87f8e5a6c0f22a9f107a3d4d3b6f3b1b3b3f1b9b5c7f3c835260408201527fc89efdaa54c0f20c7adf612882df0950f5a951637e0307cdcb4c672f298b8bc660608201524660808201523060a082015260a0815260c0810181811067ffffffffffffffff8211176115e15760405251902090565b818102929181159184041417156117b657565b801561195357811561193d57670de0b6b3a7640000028101600019010490565b634e487b7160e01b600052601260045260246000fd5b5050600090565b600854461461196b5761168c61184d565b60075490565b600080516020611c03833981519152546001600160a01b0316330361199257565b60405163118cdaa760e01b8152336004820152602490fd5b6002546001600160a01b03168015611a2157602060049160405192838092632986c0e560e01b82525afa908115611a15576000916119e6575090565b90506020813d602011611a0d575b81611a01602093836115f7565b8101031261166c575190565b3d91506119f4565b6040513d6000823e3d90fd5b60405163d92e233d60e01b8152600490fd5b90811561195357670de0b6b3a764000091020490565b60ff7ff0c57e16840df040f15088dc2f81fe391c3923bec73e23a9662efc9c229c6a005460401c1615611a7857565b604051631afcd79f60e31b8152600490fd5b91907f7fffffffffffffffffffffffffffffff5d576e7357a4501ddfe92f46681b20a08411611b0e57926020929160ff608095604051948552168484015260408301526060820152600092839182805260015afa15611b025780516001600160a01b03811615611af957918190565b50809160019190565b604051903d90823e3d90fd5b50505060009160039190565b6004811015611b895780611b2c575050565b60018103611b465760405163f645eedf60e01b8152600490fd5b60028103611b675760405163fce698f760e01b815260048101839052602490fd5b600314611b715750565b602490604051906335e2f38360e21b82526004820152fd5b634e487b7160e01b600052602160045260246000fd5b90611bc65750805115611bb457602081519101fd5b60405163d6bda27560e01b8152600490fd5b81511580611bf9575b611bd7575090565b604051639996b31560e01b81526001600160a01b039091166004820152602490fd5b50803b15611bcf56fe9016d09d72d40fdae2fd8ceac6b6234c7706214fd39c1cd1e609a0528c199300ddf252ad1be2c89b69c2b068fc378daa952ba7f163c4a11628f55a4df523b3efa26469706673582212206caa1179e099ecdf9e41dca02f2590ae22ca18b5ebb299394a19a070e2464a4564736f6c63430008180033","linkReferences":{}},"methodIdentifiers":{"DOMAIN_SEPARATOR()":"3644e515","UPGRADE_INTERFACE_VERSION()":"ad3cb1cc","allowance(address,address)":"dd62ed3e","approve(address,uint256)":"095ea7b3","balanceOf(address)":"70a08231","burnShares(address,uint256)":"ee7a7c04","convertToExternal(uint256)":"cc04c6c5","convertToShares(uint256)":"c6e6f592","decimals()":"313ce567","initialize(string,string,address)":"077f224a","mintShares(address,uint256)":"528c198a","name()":"06fdde03","nonces(address)":"7ecebe00","onIndexUpdated(uint256)":"111d00e5","owner()":"8da5cb5b","permit(address,address,uint256,uint256,uint8,bytes32,bytes32)":"d505accf","pool()":"16f0115b","poolIndex()":"4ce272ee","proxiableUUID()":"52d1902d","renounceOwnership()":"715018a6","setPool(address)":"4437152a","sharesOf(address)":"f5eb42dc","symbol()":"95d89b41","sync()":"fff6cae9","totalShares()":"3a98ef39","totalSupply()":"18160ddd","transfer(address,uint256)":"a9059cbb","transferFrom(address,address,uint256)":"23b872dd","transferOwnership(address)":"f2fde38b","upgradeToAndCall(address,bytes)":"4f1ef286"},"id":76}