{"abi":[{"type":"constructor","inputs":[],"stateMutability":"nonpayable"},{"type":"function","name":"CLOCK_MODE","inputs":[],"outputs":[{"name":"","type":"string","internalType":"string"}],"stateMutability":"view"},{"type":"function","name":"DOMAIN_SEPARATOR","inputs":[],"outputs":[{"name":"","type":"bytes32","internalType":"bytes32"}],"stateMutability":"view"},{"type":"function","name":"UPGRADE_INTERFACE_VERSION","inputs":[],"outputs":[{"name":"","type":"string","internalType":"string"}],"stateMutability":"view"},{"type":"function","name":"allowance","inputs":[{"name":"owner","type":"address","internalType":"address"},{"name":"spender","type":"address","internalType":"address"}],"outputs":[{"name":"","type":"uint256","internalType":"uint256"}],"stateMutability":"view"},{"type":"function","name":"approve","inputs":[{"name":"spender","type":"address","internalType":"address"},{"name":"value","type":"uint256","internalType":"uint256"}],"outputs":[{"name":"","type":"bool","internalType":"bool"}],"stateMutability":"nonpayable"},{"type":"function","name":"aqua","inputs":[],"outputs":[{"name":"","type":"address","internalType":"address"}],"stateMutability":"view"},{"type":"function","name":"balanceOf","inputs":[{"name":"account","type":"address","internalType":"address"}],"outputs":[{"name":"","type":"uint256","internalType":"uint256"}],"stateMutability":"view"},{"type":"function","name":"checkpoints","inputs":[{"name":"account","type":"address","internalType":"address"},{"name":"pos","type":"uint32","internalType":"uint32"}],"outputs":[{"name":"","type":"tuple","internalType":"struct Checkpoints.Checkpoint208","components":[{"name":"_key","type":"uint48","internalType":"uint48"},{"name":"_value","type":"uint208","internalType":"uint208"}]}],"stateMutability":"view"},{"type":"function","name":"clock","inputs":[],"outputs":[{"name":"","type":"uint48","internalType":"uint48"}],"stateMutability":"view"},{"type":"function","name":"convertToAqua","inputs":[{"name":"arcAmount","type":"uint256","internalType":"uint256"}],"outputs":[{"name":"aquaOut","type":"uint256","internalType":"uint256"}],"stateMutability":"view"},{"type":"function","name":"convertToArc","inputs":[{"name":"aquaAmount","type":"uint256","internalType":"uint256"}],"outputs":[{"name":"arcOut","type":"uint256","internalType":"uint256"}],"stateMutability":"view"},{"type":"function","name":"decimals","inputs":[],"outputs":[{"name":"","type":"uint8","internalType":"uint8"}],"stateMutability":"view"},{"type":"function","name":"delegate","inputs":[{"name":"delegatee","type":"address","internalType":"address"}],"outputs":[],"stateMutability":"nonpayable"},{"type":"function","name":"delegateBySig","inputs":[{"name":"delegatee","type":"address","internalType":"address"},{"name":"nonce","type":"uint256","internalType":"uint256"},{"name":"expiry","type":"uint256","internalType":"uint256"},{"name":"v","type":"uint8","internalType":"uint8"},{"name":"r","type":"bytes32","internalType":"bytes32"},{"name":"s","type":"bytes32","internalType":"bytes32"}],"outputs":[],"stateMutability":"nonpayable"},{"type":"function","name":"delegates","inputs":[{"name":"account","type":"address","internalType":"address"}],"outputs":[{"name":"","type":"address","internalType":"address"}],"stateMutability":"view"},{"type":"function","name":"eip712Domain","inputs":[],"outputs":[{"name":"fields","type":"bytes1","internalType":"bytes1"},{"name":"name","type":"string","internalType":"string"},{"name":"version","type":"string","internalType":"string"},{"name":"chainId","type":"uint256","internalType":"uint256"},{"name":"verifyingContract","type":"address","internalType":"address"},{"name":"salt","type":"bytes32","internalType":"bytes32"},{"name":"extensions","type":"uint256[]","internalType":"uint256[]"}],"stateMutability":"view"},{"type":"function","name":"exchangeRate","inputs":[],"outputs":[{"name":"","type":"uint256","internalType":"uint256"}],"stateMutability":"view"},{"type":"function","name":"getPastTotalSupply","inputs":[{"name":"timepoint","type":"uint256","internalType":"uint256"}],"outputs":[{"name":"","type":"uint256","internalType":"uint256"}],"stateMutability":"view"},{"type":"function","name":"getPastVotes","inputs":[{"name":"account","type":"address","internalType":"address"},{"name":"timepoint","type":"uint256","internalType":"uint256"}],"outputs":[{"name":"","type":"uint256","internalType":"uint256"}],"stateMutability":"view"},{"type":"function","name":"getVotes","inputs":[{"name":"account","type":"address","internalType":"address"}],"outputs":[{"name":"","type":"uint256","internalType":"uint256"}],"stateMutability":"view"},{"type":"function","name":"initialize","inputs":[{"name":"name_","type":"string","internalType":"string"},{"name":"symbol_","type":"string","internalType":"string"},{"name":"pool_","type":"address","internalType":"address"},{"name":"aqua_","type":"address","internalType":"address"},{"name":"owner_","type":"address","internalType":"address"}],"outputs":[],"stateMutability":"nonpayable"},{"type":"function","name":"name","inputs":[],"outputs":[{"name":"","type":"string","internalType":"string"}],"stateMutability":"view"},{"type":"function","name":"nonces","inputs":[{"name":"owner","type":"address","internalType":"address"}],"outputs":[{"name":"","type":"uint256","internalType":"uint256"}],"stateMutability":"view"},{"type":"function","name":"numCheckpoints","inputs":[{"name":"account","type":"address","internalType":"address"}],"outputs":[{"name":"","type":"uint32","internalType":"uint32"}],"stateMutability":"view"},{"type":"function","name":"owner","inputs":[],"outputs":[{"name":"","type":"address","internalType":"address"}],"stateMutability":"view"},{"type":"function","name":"paused","inputs":[],"outputs":[{"name":"","type":"bool","internalType":"bool"}],"stateMutability":"view"},{"type":"function","name":"permit","inputs":[{"name":"owner","type":"address","internalType":"address"},{"name":"spender","type":"address","internalType":"address"},{"name":"value","type":"uint256","internalType":"uint256"},{"name":"deadline","type":"uint256","internalType":"uint256"},{"name":"v","type":"uint8","internalType":"uint8"},{"name":"r","type":"bytes32","internalType":"bytes32"},{"name":"s","type":"bytes32","internalType":"bytes32"}],"outputs":[],"stateMutability":"nonpayable"},{"type":"function","name":"pool","inputs":[],"outputs":[{"name":"","type":"address","internalType":"address"}],"stateMutability":"view"},{"type":"function","name":"proxiableUUID","inputs":[],"outputs":[{"name":"","type":"bytes32","internalType":"bytes32"}],"stateMutability":"view"},{"type":"function","name":"recoverLostTokens","inputs":[{"name":"token","type":"address","internalType":"address"},{"name":"to","type":"address","internalType":"address"},{"name":"amount","type":"uint256","internalType":"uint256"}],"outputs":[],"stateMutability":"nonpayable"},{"type":"function","name":"renounceOwnership","inputs":[],"outputs":[],"stateMutability":"nonpayable"},{"type":"function","name":"setAqua","inputs":[{"name":"aqua_","type":"address","internalType":"address"}],"outputs":[],"stateMutability":"nonpayable"},{"type":"function","name":"setPause","inputs":[{"name":"on","type":"bool","internalType":"bool"}],"outputs":[],"stateMutability":"nonpayable"},{"type":"function","name":"setPool","inputs":[{"name":"pool_","type":"address","internalType":"address"}],"outputs":[],"stateMutability":"nonpayable"},{"type":"function","name":"symbol","inputs":[],"outputs":[{"name":"","type":"string","internalType":"string"}],"stateMutability":"view"},{"type":"function","name":"totalSupply","inputs":[],"outputs":[{"name":"","type":"uint256","internalType":"uint256"}],"stateMutability":"view"},{"type":"function","name":"transfer","inputs":[{"name":"to","type":"address","internalType":"address"},{"name":"value","type":"uint256","internalType":"uint256"}],"outputs":[{"name":"","type":"bool","internalType":"bool"}],"stateMutability":"nonpayable"},{"type":"function","name":"transferFrom","inputs":[{"name":"from","type":"address","internalType":"address"},{"name":"to","type":"address","internalType":"address"},{"name":"value","type":"uint256","internalType":"uint256"}],"outputs":[{"name":"","type":"bool","internalType":"bool"}],"stateMutability":"nonpayable"},{"type":"function","name":"transferOwnership","inputs":[{"name":"newOwner","type":"address","internalType":"address"}],"outputs":[],"stateMutability":"nonpayable"},{"type":"function","name":"unwrap","inputs":[{"name":"arcAmount","type":"uint256","internalType":"uint256"},{"name":"to","type":"address","internalType":"address"}],"outputs":[{"name":"aquaOut","type":"uint256","internalType":"uint256"}],"stateMutability":"nonpayable"},{"type":"function","name":"upgradeToAndCall","inputs":[{"name":"newImplementation","type":"address","internalType":"address"},{"name":"data","type":"bytes","internalType":"bytes"}],"outputs":[],"stateMutability":"payable"},{"type":"function","name":"wrap","inputs":[{"name":"aquaAmount","type":"uint256","internalType":"uint256"},{"name":"to","type":"address","internalType":"address"}],"outputs":[{"name":"arcOut","type":"uint256","internalType":"uint256"}],"stateMutability":"nonpayable"},{"type":"function","name":"wrapWithPermit","inputs":[{"name":"aquaAmount","type":"uint256","internalType":"uint256"},{"name":"to","type":"address","internalType":"address"},{"name":"value","type":"uint256","internalType":"uint256"},{"name":"deadline","type":"uint256","internalType":"uint256"},{"name":"v","type":"uint8","internalType":"uint8"},{"name":"r","type":"bytes32","internalType":"bytes32"},{"name":"s","type":"bytes32","internalType":"bytes32"}],"outputs":[{"name":"arcOut","type":"uint256","internalType":"uint256"}],"stateMutability":"nonpayable"},{"type":"event","name":"Approval","inputs":[{"name":"owner","type":"address","indexed":true,"internalType":"address"},{"name":"spender","type":"address","indexed":true,"internalType":"address"},{"name":"value","type":"uint256","indexed":false,"internalType":"uint256"}],"anonymous":false},{"type":"event","name":"DelegateChanged","inputs":[{"name":"delegator","type":"address","indexed":true,"internalType":"address"},{"name":"fromDelegate","type":"address","indexed":true,"internalType":"address"},{"name":"toDelegate","type":"address","indexed":true,"internalType":"address"}],"anonymous":false},{"type":"event","name":"DelegateVotesChanged","inputs":[{"name":"delegate","type":"address","indexed":true,"internalType":"address"},{"name":"previousVotes","type":"uint256","indexed":false,"internalType":"uint256"},{"name":"newVotes","type":"uint256","indexed":false,"internalType":"uint256"}],"anonymous":false},{"type":"event","name":"EIP712DomainChanged","inputs":[],"anonymous":false},{"type":"event","name":"Initialized","inputs":[{"name":"version","type":"uint64","indexed":false,"internalType":"uint64"}],"anonymous":false},{"type":"event","name":"OwnershipTransferred","inputs":[{"name":"previousOwner","type":"address","indexed":true,"internalType":"address"},{"name":"newOwner","type":"address","indexed":true,"internalType":"address"}],"anonymous":false},{"type":"event","name":"Paused","inputs":[{"name":"account","type":"address","indexed":false,"internalType":"address"}],"anonymous":false},{"type":"event","name":"Transfer","inputs":[{"name":"from","type":"address","indexed":true,"internalType":"address"},{"name":"to","type":"address","indexed":true,"internalType":"address"},{"name":"value","type":"uint256","indexed":false,"internalType":"uint256"}],"anonymous":false},{"type":"event","name":"Unpaused","inputs":[{"name":"account","type":"address","indexed":false,"internalType":"address"}],"anonymous":false},{"type":"event","name":"Unwrapped","inputs":[{"name":"user","type":"address","indexed":true,"internalType":"address"},{"name":"arcIn","type":"uint256","indexed":false,"internalType":"uint256"},{"name":"aquaOut","type":"uint256","indexed":false,"internalType":"uint256"}],"anonymous":false},{"type":"event","name":"Upgraded","inputs":[{"name":"implementation","type":"address","indexed":true,"internalType":"address"}],"anonymous":false},{"type":"event","name":"Wrapped","inputs":[{"name":"user","type":"address","indexed":true,"internalType":"address"},{"name":"aquaIn","type":"uint256","indexed":false,"internalType":"uint256"},{"name":"arcOut","type":"uint256","indexed":false,"internalType":"uint256"}],"anonymous":false},{"type":"error","name":"AddressEmptyCode","inputs":[{"name":"target","type":"address","internalType":"address"}]},{"type":"error","name":"CheckpointUnorderedInsertion","inputs":[]},{"type":"error","name":"ECDSAInvalidSignature","inputs":[]},{"type":"error","name":"ECDSAInvalidSignatureLength","inputs":[{"name":"length","type":"uint256","internalType":"uint256"}]},{"type":"error","name":"ECDSAInvalidSignatureS","inputs":[{"name":"s","type":"bytes32","internalType":"bytes32"}]},{"type":"error","name":"ERC1967InvalidImplementation","inputs":[{"name":"implementation","type":"address","internalType":"address"}]},{"type":"error","name":"ERC1967NonPayable","inputs":[]},{"type":"error","name":"ERC20ExceededSafeSupply","inputs":[{"name":"increasedSupply","type":"uint256","internalType":"uint256"},{"name":"cap","type":"uint256","internalType":"uint256"}]},{"type":"error","name":"ERC20InsufficientAllowance","inputs":[{"name":"spender","type":"address","internalType":"address"},{"name":"allowance","type":"uint256","internalType":"uint256"},{"name":"needed","type":"uint256","internalType":"uint256"}]},{"type":"error","name":"ERC20InsufficientBalance","inputs":[{"name":"sender","type":"address","internalType":"address"},{"name":"balance","type":"uint256","internalType":"uint256"},{"name":"needed","type":"uint256","internalType":"uint256"}]},{"type":"error","name":"ERC20InvalidApprover","inputs":[{"name":"approver","type":"address","internalType":"address"}]},{"type":"error","name":"ERC20InvalidReceiver","inputs":[{"name":"receiver","type":"address","internalType":"address"}]},{"type":"error","name":"ERC20InvalidSender","inputs":[{"name":"sender","type":"address","internalType":"address"}]},{"type":"error","name":"ERC20InvalidSpender","inputs":[{"name":"spender","type":"address","internalType":"address"}]},{"type":"error","name":"ERC2612ExpiredSignature","inputs":[{"name":"deadline","type":"uint256","internalType":"uint256"}]},{"type":"error","name":"ERC2612InvalidSigner","inputs":[{"name":"signer","type":"address","internalType":"address"},{"name":"owner","type":"address","internalType":"address"}]},{"type":"error","name":"ERC5805FutureLookup","inputs":[{"name":"timepoint","type":"uint256","internalType":"uint256"},{"name":"clock","type":"uint48","internalType":"uint48"}]},{"type":"error","name":"ERC6372InconsistentClock","inputs":[]},{"type":"error","name":"EnforcedPause","inputs":[]},{"type":"error","name":"ExpectedPause","inputs":[]},{"type":"error","name":"FailedCall","inputs":[]},{"type":"error","name":"InvalidAccountNonce","inputs":[{"name":"account","type":"address","internalType":"address"},{"name":"currentNonce","type":"uint256","internalType":"uint256"}]},{"type":"error","name":"InvalidAddress","inputs":[]},{"type":"error","name":"InvalidInitialization","inputs":[]},{"type":"error","name":"NotInitializing","inputs":[]},{"type":"error","name":"OwnableInvalidOwner","inputs":[{"name":"owner","type":"address","internalType":"address"}]},{"type":"error","name":"OwnableUnauthorizedAccount","inputs":[{"name":"account","type":"address","internalType":"address"}]},{"type":"error","name":"ReentrancyGuardReentrantCall","inputs":[]},{"type":"error","name":"SafeCastOverflowedUintDowncast","inputs":[{"name":"bits","type":"uint8","internalType":"uint8"},{"name":"value","type":"uint256","internalType":"uint256"}]},{"type":"error","name":"SafeERC20FailedOperation","inputs":[{"name":"token","type":"address","internalType":"address"}]},{"type":"error","name":"UUPSUnauthorizedCallContext","inputs":[]},{"type":"error","name":"UUPSUnsupportedProxiableUUID","inputs":[{"name":"slot","type":"bytes32","internalType":"bytes32"}]},{"type":"error","name":"VotesExpiredSignature","inputs":[{"name":"expiry","type":"uint256","internalType":"uint256"}]},{"type":"error","name":"ZeroAmount","inputs":[]}],"bytecode":{"object":"0x60a08060405234620000d157306080527ff0c57e16840df040f15088dc2f81fe391c3923bec73e23a9662efc9c229c6a009081549060ff8260401c16620000c257506001600160401b036002600160401b0319828216016200007c575b604051613ae99081620000d78239608051818181610a8f0152610bbf0152f35b6001600160401b031990911681179091556040519081527fc7f505b2f371ae2175ee4913f4499e1f2633a7b5936321eed1cdaeb6115181d290602090a13880806200005c565b63f92ee8a960e01b8152600490fd5b600080fdfe6080604052600436101561001257600080fd5b60003560e01c806306fdde03146102c7578063095ea7b3146102c257806313bac820146102bd57806316f0115b146102b857806318160ddd146102b357806323b872dd146102ae57806325ee1730146102a9578063313ce567146102a45780633644e5151461029f5780633a46b1a81461029a5780633ba0b9a9146102955780634437152a146102905780634bf5d7e91461028b5780634f1ef2861461028657806352d1902d14610281578063587cde1e1461027c5780635c19a95c146102775780635c975abb1461027257806361dec3541461026d5780636fcfff45146102685780637079c95f1461026357806370a082311461025e578063715018a6146102595780637591e825146102545780637647691d1461024f5780637ecebe001461024a57806384b0196e146102455780638da5cb5b146102405780638e539e8c1461023b57806391ddadf41461023657806395d89b41146102315780639ab24eb01461022c578063a9059cbb14610227578063ad3cb1cc14610222578063bd6af0521461021d578063bedb86fb14610218578063c3cda52014610213578063d505accf1461020e578063db0ed6a014610209578063dd62ed3e14610204578063f1127ed8146101ff578063f2fde38b146101fa5763fe6a8705146101f557600080fd5b611a34565b611a0b565b611978565b611940565b6117d2565b61165c565b611593565b6114bd565b61149f565b611459565b611433565b6113fc565b611348565b61131c565b61123f565b611209565b611138565b611057565b610eb3565b610e6b565b610e00565b610da8565b610d8a565b610d35565b610c9f565b610c6f565b610c4d565b610c05565b610bac565b610a3f565b6108c7565b61086d565b610852565b610779565b61075e565b610742565b610673565b61057d565b61051d565b6104f4565b6104c6565b610495565b610330565b60009103126102d757565b600080fd5b919082519283825260005b848110610308575050826000602080949584010152601f8019910116010190565b6020818301810151848301820152016102e7565b90602061032d9281815201906102dc565b90565b346102d757600080600319360112610424576040519080600080516020613934833981519152805461036181611a5d565b808652926020926001928084169081156103f5575060011461039e575b61039a8761038e818903826109bd565b6040519182918261031c565b0390f35b815293507f2ae08a8e29253f69ac5d979a101956ab8f8d9d7ded63fa7a83b16fc47648eab05b8385106103e25750505050810160200161038e8261039a388061037e565b80548686018401529382019381016103c4565b91505086955061039a9693506020925061038e94915060ff191682840152151560051b8201019293388061037e565b80fd5b600435906001600160a01b03821682036102d757565b602435906001600160a01b03821682036102d757565b604435906001600160a01b03821682036102d757565b606435906001600160a01b03821682036102d757565b608435906001600160a01b03821682036102d757565b346102d75760403660031901126102d7576104bb6104b1610427565b6024359033612841565b602060405160018152f35b346102d75760403660031901126102d75760206104ec6104e461043d565b600435611c1c565b604051908152f35b346102d75760003660031901126102d7576000546040516001600160a01b039091168152602090f35b346102d75760003660031901126102d75760206000805160206139b483398151915254604051908152f35b60609060031901126102d7576001600160a01b039060043582811681036102d7579160243590811681036102d7579060443590565b346102d75761058b36610548565b906105b03361059985611d11565b9060018060a01b0316600052602052604060002090565b549260001984106105c6575b6104bb93506122cf565b82841061062d576001600160a01b038116156106145733156105fb57826104bb94036105f53361059984611d11565b556105bc565b604051634a1406b160e11b815260006004820152602490fd5b60405163e602df0560e01b815260006004820152602490fd5b604051637dc7a0d960e11b81523360048201526024810185905260448101849052606490fd5b6084359060ff821682036102d757565b6064359060ff821682036102d757565b346102d75760e03660031901126102d75761068c61043d565b610694610653565b6001546001600160a01b03169190823b156102d75760ff60e460009283604051968794859363d505accf60e01b85523360048601523060248601526044356044860152606435606486015216608484015260a43560a484015260c43560c48401525af190811561073d5761039a9261071492610724575b50600435611c1c565b6040519081529081906020820190565b806107316107379261096f565b806102cc565b3861070b565b611d05565b346102d75760003660031901126102d757602060405160128152f35b346102d75760003660031901126102d75760206104ec6128f5565b346102d75760403660031901126102d75761079a610795610427565b611d4a565b6107a5602435612398565b81549060008291600584116107fc575b6107c0935084612b3d565b90816107df575050602060005b6040516001600160d01b039091168152f35b6107ea6020926123ef565b9060005281600020015460301c6107cd565b91926108078161299c565b810390811161084d576107c0938560005265ffffffffffff808360206000200154169085161060001461083b5750916107b5565b929150610847906123fe565b906107b5565b6123d9565b346102d75760003660031901126102d75760206104ec611dbc565b346102d75760203660031901126102d757610886610427565b61088e61240c565b6001600160a01b031680156108b5576001600160601b0360a01b6000541617600055600080f35b60405163e6c4247b60e01b8152600490fd5b346102d75760003660031901126102d7576108e14361296a565b65ffffffffffff806108f24361296a565b169116036109475761039a60405161090981610987565b601d81527f6d6f64653d626c6f636b6e756d6265722666726f6d3d64656661756c7400000060208201526040519182916020835260208301906102dc565b6040516301bfc1c560e61b8152600490fd5b634e487b7160e01b600052604160045260246000fd5b6001600160401b03811161098257604052565b610959565b604081019081106001600160401b0382111761098257604052565b60a081019081106001600160401b0382111761098257604052565b90601f801991011681019081106001600160401b0382111761098257604052565b604051906109eb82610987565b565b6001600160401b03811161098257601f01601f191660200190565b929192610a14826109ed565b91610a2260405193846109bd565b8294818452818301116102d7578281602093846000960137010152565b60403660031901126102d757610a53610427565b6024356001600160401b0381116102d757366023820112156102d757610a83903690602481600401359101610a08565b6001600160a01b0391907f00000000000000000000000000000000000000000000000000000000000000008316308114908115610b90575b50610b7e576020600493610acd61240c565b6040516352d1902d60e01b8152948591829086165afa60009381610b4d575b50610b1257604051634c9c8ce360e01b81526001600160a01b0383166004820152602490fd5b906000805160206139f48339815191528303610b3457610b329250612b9e565b005b604051632a87526960e21b815260048101849052602490fd5b610b7091945060203d602011610b77575b610b6881836109bd565b810190612445565b9238610aec565b503d610b5e565b60405163703e46dd60e11b8152600490fd5b9050836000805160206139f48339815191525416141538610abb565b346102d75760003660031901126102d7577f00000000000000000000000000000000000000000000000000000000000000006001600160a01b03163003610b7e5760206040516000805160206139f48339815191528152f35b346102d75760203660031901126102d75760206001600160a01b0380610c29610427565b16600052600080516020613914833981519152825260406000205416604051908152f35b346102d75760203660031901126102d757610b32610c69610427565b33612454565b346102d75760003660031901126102d757602060ff600080516020613a3483398151915254166040519015158152f35b346102d757610cad36610548565b90610cb661240c565b6001600160a01b0392818416156108b5578316928315159081610d26575b5080610d1c575b15610ce957610b3292612503565b60405162461bcd60e51b815260206004820152600b60248201526a189b1858dadb1a5cdd195960aa1b6044820152606490fd5b5030831415610cdb565b90506001541683141538610cd4565b346102d75760203660031901126102d757610d51610795610427565b5463ffffffff90818111610d6b5760209160405191168152f35b604490604051906306dfcc6560e41b8252602060048301526024820152fd5b346102d75760203660031901126102d75760206104ec600435611e78565b346102d75760203660031901126102d75760206104ec610dc6610427565b6001600160a01b031660009081527f52c63247e1f47db19d5ce0460030c497f067ca4cebf71ba98eeadabe20bace00602052604090205490565b346102d75760008060031936011261042457610e1a61240c565b60008051602061399483398151915280546001600160a01b0319811690915581906001600160a01b03167f8be0079c531659141344cd1fd0a4f28419497f9722a3daafe3b4186f6b6457e08280a380f35b346102d75760203660031901126102d757610e84610427565b610e8c61240c565b6001600160a01b031680156108b5576001600160601b0360a01b6001541617600155600080f35b346102d7576040806003193601126102d75760043590610ed161043d565b90610eda612157565b610ee2612182565b8215611047576001600160a01b0382161561103757610f0083611e78565b91331561101f57610f1033611d83565b54848110610ff95783859261039a96610fa09303610f2d33611d83565b55610f55846000805160206139b483398151915254036000805160206139b483398151915255565b845184815260009033907fddf252ad1be2c89b69c2b068fc378daa952ba7f163c4a11628f55a4df523b3ef90602090a3610f8f84336134a6565b6001546001600160a01b0316612503565b81519081526020810183905233907ff64ae1cc3e0e07da9c895b3225439175cab5838aca24c4e74852704858c96a7b90604090a2610feb6001600080516020613a5483398151915255565b519081529081906020820190565b825163391434e360e21b8152336004820152602481019190915260448101859052606490fd5b8151634b637e8f60e11b815260006004820152602490fd5b5163e6c4247b60e01b8152600490fd5b51631f2a200560e01b8152600490fd5b346102d75760203660031901126102d7576001600160a01b03611078610427565b166000527f5ab42ced628888259c08ac98db1eb0cf702fc1501344311d8b100cd1bfe4bb006020526020604060002054604051908152f35b916110e490949194600f60f81b84526110d660209660e0602087015260e08601906102dc565b9084820360408601526102dc565b92606083015260018060a01b03166080820152600060a082015260c08183039101526020808451928381520193019160005b828110611124575050505090565b835185529381019392810192600101611116565b346102d75760003660031901126102d7577fa16a46d94261c7517cc8ff89f61c0ce93598e3c849801011dee649a6a557d1005415806111e0575b156111a35761117f611a97565b611187611b6d565b9061039a611193611e9b565b60405193849330914691866110b0565b60405162461bcd60e51b81526020600482015260156024820152741152540dcc4c8e88155b9a5b9a5d1a585b1a5e9959605a1b6044820152606490fd5b507fa16a46d94261c7517cc8ff89f61c0ce93598e3c849801011dee649a6a557d1015415611172565b346102d75760003660031901126102d757600080516020613994833981519152546040516001600160a01b039091168152602090f35b346102d75760203660031901126102d75761125b600435612398565b600080516020613a148339815191529081549060008291600584116112c1575b6112859350612ac7565b908161129957505060405160008152602090f35b6112a46020926123ef565b90600052600080516020613a94833981519152015460301c6107cd565b91926112cc8161299c565b810390811161084d57611285938560005265ffffffffffff8083600080516020613a948339815191520154169085161060001461130a57509161127b565b929150611316906123fe565b9061127b565b346102d75760003660031901126102d75760206113384361296a565b65ffffffffffff60405191168152f35b346102d757600080600319360112610424576040519080600080516020613974833981519152805461137981611a5d565b808652926020926001928084169081156103f557506001146113a55761039a8761038e818903826109bd565b815293507f46a2803e59a4de4e7a4c574b1243f25977ac4c77d5a1a4a609b5394cebb4a2aa5b8385106113e95750505050810160200161038e8261039a388061037e565b80548686018401529382019381016113cb565b346102d75760203660031901126102d75760206001600160d01b0361142a611425610795610427565b612591565b16604051908152f35b346102d75760403660031901126102d7576104bb61144f610427565b60243590336122cf565b346102d75760003660031901126102d75761039a60405161147981610987565b60058152640352e302e360dc1b60208201526040519182916020835260208301906102dc565b346102d75760203660031901126102d75760206104ec600435611ec3565b346102d75760203660031901126102d75760043580151581036102d7576114e261240c565b15611535576114ef612157565b600080516020613a34833981519152600160ff198254161790557f62e78cea01bee320cd4e420270b5ea74000d11b0c9f74754ebdbfc544b05a2586020604051338152a1005b600080516020613a34833981519152805460ff8116156115815760ff191690557f5db9ee0a495bf2e6ff9c91a7834c1ba4fdd244a5e8aa4e537bd38aeae4b073aa6020604051338152a1005b604051638dfc202b60e01b8152600490fd5b346102d75760c03660031901126102d7576115ac610427565b604435906024356115bb610663565b83421161164357611637610b329461163e926040519060208201927fe48329057bfd03d55e49b547132e39cffd9c1820ad7b9d4c5307691425d15adf845260018060a01b038816604084015286606084015260808301526080825261161f826109a2565b61163260a43593608435935190206125bd565b6125e3565b91826125fb565b612454565b604051632341d78760e11b815260048101859052602490fd5b346102d75760e03660031901126102d757611675610427565b61167d61043d565b6044359060643561168c610653565b81421161179e576001600160a01b0385811660008181527f5ab42ced628888259c08ac98db1eb0cf702fc1501344311d8b100cd1bfe4bb00602090815260409182902080546001810190915582517f6e71edae12b1b97f4d1f60370fef10105fa2faae0126114a169c64845d6126c99281019283529283019390935292861660608201526080810187905260a081019190915260c08101939093526117579290916117448260e081015b03601f1981018452836109bd565b61163260c4359360a435935190206125bd565b6001600160a01b03848116908216036117745750610b3292612841565b6040516325c0072360e11b81526001600160a01b0391821660048201529084166024820152604490fd5b60405163313c898160e11b815260048101839052602490fd5b9080601f830112156102d75781602061032d93359101610a08565b346102d75760a03660031901126102d7576001600160401b036004358181116102d7576118039036906004016117b7565b6024358281116102d75761181b9036906004016117b7565b611823610453565b61182b610469565b9061183461047f565b92600080516020613a74833981519152549560ff8760401c1615961680159081611938575b600114908161192e575b159081611925575b5061191357600080516020613a74833981519152805467ffffffffffffffff1916600117905561189f94866118ee57611eea565b6118a557005b600080516020613a74833981519152805460ff60401b19169055604051600181527fc7f505b2f371ae2175ee4913f4499e1f2633a7b5936321eed1cdaeb6115181d290602090a1005b600080516020613a74833981519152805460ff60401b1916600160401b179055611eea565b60405163f92ee8a960e01b8152600490fd5b9050153861186b565b303b159150611863565b879150611859565b346102d75760403660031901126102d757602061196f61195e610427565b61059961196961043d565b91611d11565b54604051908152f35b346102d75760403660031901126102d757611991610427565b6024359063ffffffff821682036102d7576040916119c36119d1926119b46120ca565b506119bd6120ca565b50611d4a565b6119cb6120ca565b506132b7565b508151906119de82610987565b54602065ffffffffffff821692838152019060301c8152825191825260018060d01b039051166020820152f35b346102d75760203660031901126102d757610b32611a27610427565b611a2f61240c565b6120e3565b346102d75760003660031901126102d7576001546040516001600160a01b039091168152602090f35b90600182811c92168015611a8d575b6020831014611a7757565b634e487b7160e01b600052602260045260246000fd5b91607f1691611a6c565b6040519060008260008051602061395483398151915291825492611aba84611a5d565b80845293602091600191828116908115611b475750600114611ae6575b5050506109eb925003836109bd565b60009081527f42ad5d3e1f2e6e70edcf6d991b8a3023d3fca8047a131592f9edb9fd9b89d57d9590935091905b828410611b2f57506109eb945050508101602001388080611ad7565b85548885018301529485019487945092810192611b13565b92505050602092506109eb94915060ff191682840152151560051b820101388080611ad7565b604051906000826000805160206139d483398151915291825492611b9084611a5d565b80845293602091600191828116908115611b475750600114611bbb575050506109eb925003836109bd565b60009081527f5f9ce34815f8e11431c7bb75a8e6886a91478f7ffc1dbb0a98dc240fddd76b759590935091905b828410611c0457506109eb945050508101602001388080611ad7565b85548885018301529485019487945092810192611be8565b611c24612157565b611c2c612182565b8015611cf3576001600160a01b0391808316156108b557611c4c82611ec3565b928315611cc857611c7d91611c7884611c6f87946001541660018060a01b031690565b309033906121b2565b6121f9565b604080519182526020820183905233917f727200b48f3c812bfb404b578574e1c03694edb122d80fa6dcb352a9e4f8a9389190a261032d6001600080516020613a5483398151915255565b606460405162461bcd60e51b8152602060048201526004602482015263191d5cdd60e21b6044820152fd5b604051631f2a200560e01b8152600490fd5b6040513d6000823e3d90fd5b6001600160a01b031660009081527f52c63247e1f47db19d5ce0460030c497f067ca4cebf71ba98eeadabe20bace016020526040902090565b6001600160a01b031660009081527fe8b26c30fad74198956032a3533d903385d56dd795af560196f9c78d4af40d016020526040902090565b6001600160a01b031660009081527f52c63247e1f47db19d5ce0460030c497f067ca4cebf71ba98eeadabe20bace006020526040902090565b600054604051632986c0e560e01b815290602090829060049082906001600160a01b03165afa90811561073d57600091611df4575090565b90506020813d602011611e1b575b81611e0f602093836109bd565b810103126102d7575190565b3d9150611e02565b15611e2a57565b60405162461bcd60e51b81526020600482015260066024820152650726174653d360d41b6044820152606490fd5b8115611e62570490565b634e487b7160e01b600052601260045260246000fd5b670de0b6b3a764000090611e8a611dbc565b90611e96821515611e23565b020490565b604051602081018181106001600160401b038211176109825760405260008152906000368137565b61032d90670de0b6b3a7640000611ed8611dbc565b91611ee4831515611e23565b02611e58565b92939192906001600160a01b03808516159081156120bf575b81156120b4575b506108b557611f17612eaa565b611f1f612eaa565b81516001600160401b0381116109825760008051602061393483398151915290611f5281611f4d8454611a5d565b612ed9565b602080601f831160011461200e575093611f9f611fb194611fe69794611f9885611fa4966109eb9d9c9a600091612003575b508160011b916000199060031b1c19161790565b90556130d5565b612671565b611fac612eaa565b612809565b611fb9612eaa565b611fc161281d565b611fc9612eaa565b60018060a01b03166001600160601b0360a01b6000541617600055565b60018060a01b03166001600160601b0360a01b6001541617600155565b905086015138611f84565b60008051602061393483398151915260005290601f1983167f2ae08a8e29253f69ac5d979a101956ab8f8d9d7ded63fa7a83b16fc47648eab0926000905b82821061209c57505094611fe697946001856109eb9c9b9995611f9f95611fa498611fb19b10612083575b5050811b0190556130d5565b87015160001960f88460031b161c191690553880612077565b80600185968294968c0151815501950193019061204c565b905083161538611f0a565b868116159150611f03565b604051906120d782610987565b60006020838281520152565b6001600160a01b0390811690811561213e5760008051602061399483398151915280546001600160a01b031981168417909155167f8be0079c531659141344cd1fd0a4f28419497f9722a3daafe3b4186f6b6457e0600080a3565b604051631e4fbdf760e01b815260006004820152602490fd5b60ff600080516020613a34833981519152541661217057565b60405163d93c066560e01b8152600490fd5b600080516020613a5483398151915260028154146121a05760029055565b604051633ee5aeb560e01b8152600490fd5b6040516323b872dd60e01b60208201526001600160a01b0392831660248201529290911660448301526064808301939093529181526109eb916121f4826109a2565b612899565b91906001600160a01b03831680156122b6576000805160206139b483398151915290815483810180911161084d576000805160206139b48339815191525561224085611d83565b8054840190556040518381526000907fddf252ad1be2c89b69c2b068fc378daa952ba7f163c4a11628f55a4df523b3ef90602090a354926001600160d01b038411612290576109eb929350613532565b604051630e58ae9360e11b8152600481018590526001600160d01b036024820152604490fd5b60405163ec442f0560e01b815260006004820152602490fd5b6001600160a01b038082169493929190851561237f57821680156122b6576122f682611d83565b549584871061235057846109eb96970361230f84611d83565b5561231984611d83565b8054860190556040518581527fddf252ad1be2c89b69c2b068fc378daa952ba7f163c4a11628f55a4df523b3ef90602090a36135b3565b60405163391434e360e21b81526001600160a01b03841660048201526024810188905260448101869052606490fd5b604051634b637e8f60e11b815260006004820152602490fd5b65ffffffffffff6123a84361296a565b16808210156123bb575061032d9061296a565b6044925060405191637669fc0f60e11b835260048301526024820152fd5b634e487b7160e01b600052601160045260246000fd5b60001981019190821161084d57565b906001820180921161084d57565b600080516020613994833981519152546001600160a01b0316330361242d57565b60405163118cdaa760e01b8152336004820152602490fd5b908160209103126102d7575190565b6001600160a01b0381811660008181526000805160206139148339815191526020526040812080548685166001600160a01b0319821681179092556109eb969416946124fd9390928691907f3134e8a2e6d97e929a7e54011ea5485d7d196dd5f0ba4d4ef95803e8e3fc257f9080a46001600160a01b031660009081527f52c63247e1f47db19d5ce0460030c497f067ca4cebf71ba98eeadabe20bace00602052604090205490565b91612c45565b60405163a9059cbb60e01b60208201526001600160a01b03909216602483015260448201929092526109eb916121f48260648101611736565b600080516020613a14833981519152805480612559575050600090565b8060001981011161084d577f88c46c62109817164d0ae1873830d4299a82e5daf552a3d8e989b27638fcf74791600052015460301c90565b80548061259f575050600090565b60001991818381011161084d57600052602060002001015460301c90565b6042906125c86128f5565b906040519161190160f01b8352600283015260228201522090565b9161032d93916125f293612d79565b90929192612e1d565b6001600160a01b03811660009081527f5ab42ced628888259c08ac98db1eb0cf702fc1501344311d8b100cd1bfe4bb0060205260409020805460018101909155809203612646575050565b6040516301d4b62360e61b81526001600160a01b039190911660048201526024810191909152604490fd5b9061267a612eaa565b60405161268681610987565b6001808252602090603160f81b60208401526126a0612eaa565b8451906001600160401b03821161098257600080516020613954833981519152926126d4836126cf8654611a5d565b612f58565b602091601f8411600114612770575050908061270c926127139697600092612765575b50508160011b916000199060031b1c19161790565b90556131d5565b61273c60007fa16a46d94261c7517cc8ff89f61c0ce93598e3c849801011dee649a6a557d10055565b6109eb60007fa16a46d94261c7517cc8ff89f61c0ce93598e3c849801011dee649a6a557d10155565b0151905038806126f7565b6000805160206139548339815191526000908152601f198516987f42ad5d3e1f2e6e70edcf6d991b8a3023d3fca8047a131592f9edb9fd9b89d57d949390925b8a83106127f257505050908392916001946127139899106127d9575b505050811b0190556131d5565b015160001960f88460031b161c191690553880806127cc565b8385015186559485019493810193918101916127b0565b6109eb90612815612eaa565b611a2f612eaa565b612825612eaa565b61282d612eaa565b6001600080516020613a5483398151915255565b6001600160a01b0380821692919083156106145782169384156105fb578061288f7f8c5be1e5ebec7d5bd14f71427d1e84f3dd0314c0f7b2291e5b200ac8c7c3b92594610599602095611d11565b55604051908152a3565b906000602091828151910182855af115611d05576000513d6128ec57506001600160a01b0381163b155b6128ca5750565b604051635274afe760e01b81526001600160a01b039091166004820152602490fd5b600114156128c3565b6128fd6132e5565b61290561334f565b6040519060208201927f8b73c3c69bb8fe3d512ecc4cf759cc79239f7b179b0ffacaa9a75d522b39400f8452604083015260608201524660808201523060a082015260a0815260c081018181106001600160401b038211176109825760405251902090565b65ffffffffffff9081811161297d571690565b604490604051906306dfcc6560e41b8252603060048301526024820152fd5b600181111561032d57600181600160801b811015612ab5575b612a5d612a53612a49612a3f612a35612a2b612a6997600488600160401b612a649a1015612aa8575b640100000000811015612a9b575b62010000811015612a8e575b610100811015612a82575b6010811015612a76575b1015612a6e575b60030260011c612a24818b611e58565b0160011c90565b612a24818a611e58565b612a248189611e58565b612a248188611e58565b612a248187611e58565b612a248186611e58565b8093611e58565b821190565b900390565b60011b612a14565b811c9160021b91612a0d565b60081c91811b91612a03565b60101c9160081b916129f8565b60201c9160101b916129ec565b60401c9160201b916129de565b50600160401b9050608082901c6129b5565b905b828110612ad557505090565b90918082169080831860011c820180921161084d57600080516020613a1483398151915260005265ffffffffffff8083600080516020613a9483398151915201541690851610600014612b2b5750915b90612ac9565b929150612b37906123fe565b90612b25565b91905b838210612b4d5750505090565b9091928083169080841860011c820180921161084d5760008581526020902082015465ffffffffffff9081169084161015612b8c5750925b9190612b40565b939250612b98906123fe565b91612b85565b90813b15612c24576000805160206139f483398151915280546001600160a01b0319166001600160a01b0384169081179091557fbc7cd75a20ee27fd9adebab32041f755214dbc6bffa90cc0225b39da2e5c2d3b600080a2805115612c0957612c0691613394565b50565b505034612c1257565b60405163b398979f60e01b8152600490fd5b604051634c9c8ce360e01b81526001600160a01b0383166004820152602490fd5b6001600160a01b03808316939291908116908185141580612d70575b612c6d575b5050505050565b81612ce2575b505082612c82575b8080612c66565b7fdec2bacdd2f05b59de34da9b523dff8be42e5e38e818c82fdb0bae774387a72491612cb9612cb3612cbf93611d4a565b916133da565b9061340d565b604080516001600160d01b039384168152919092166020820152a2388080612c7b565b612ceb90611d4a565b612cf4846133da565b612cfd4361296a565b6001600160d01b03918280612d1186612591565b16911690039282841161084d577fdec2bacdd2f05b59de34da9b523dff8be42e5e38e818c82fdb0bae774387a72493612d6692612d4d92613857565b6040805192851683529316602082015291829190820190565b0390a23880612c73565b50831515612c61565b91907f7fffffffffffffffffffffffffffffff5d576e7357a4501ddfe92f46681b20a08411612df157926020929160ff608095604051948552168484015260408301526060820152600092839182805260015afa1561073d5780516001600160a01b03811615612de857918190565b50809160019190565b50505060009160039190565b60041115612e0757565b634e487b7160e01b600052602160045260246000fd5b612e2681612dfd565b80612e2f575050565b612e3881612dfd565b60018103612e525760405163f645eedf60e01b8152600490fd5b612e5b81612dfd565b60028103612e7c5760405163fce698f760e01b815260048101839052602490fd5b80612e88600392612dfd565b14612e905750565b6040516335e2f38360e21b81526004810191909152602490fd5b60ff600080516020613a748339815191525460401c1615612ec757565b604051631afcd79f60e31b8152600490fd5b601f8111612ee5575050565b6000906000805160206139348339815191526000527f2ae08a8e29253f69ac5d979a101956ab8f8d9d7ded63fa7a83b16fc47648eab0906020601f850160051c83019410612f4e575b601f0160051c01915b828110612f4357505050565b818155600101612f37565b9092508290612f2e565b601f8111612f64575050565b6000906000805160206139548339815191526000527f42ad5d3e1f2e6e70edcf6d991b8a3023d3fca8047a131592f9edb9fd9b89d57d906020601f850160051c83019410612fcd575b601f0160051c01915b828110612fc257505050565b818155600101612fb6565b9092508290612fad565b601f8111612fe3575050565b6000906000805160206139748339815191526000527f46a2803e59a4de4e7a4c574b1243f25977ac4c77d5a1a4a609b5394cebb4a2aa906020601f850160051c8301941061304c575b601f0160051c01915b82811061304157505050565b818155600101613035565b909250829061302c565b601f8111613062575050565b6000906000805160206139d48339815191526000527f5f9ce34815f8e11431c7bb75a8e6886a91478f7ffc1dbb0a98dc240fddd76b75906020601f850160051c830194106130cb575b601f0160051c01915b8281106130c057505050565b8181556001016130b4565b90925082906130ab565b9081516001600160401b0381116109825760008051602061397483398151915290613109816131048454611a5d565b612fd7565b602080601f83116001146131405750819061313c9394956000926127655750508160011b916000199060031b1c19161790565b9055565b90601f198316956131806000805160206139748339815191526000527f46a2803e59a4de4e7a4c574b1243f25977ac4c77d5a1a4a609b5394cebb4a2aa90565b926000905b8882106131bd575050836001959697106131a4575b505050811b019055565b015160001960f88460031b161c1916905538808061319a565b80600185968294968601518155019501930190613185565b9081516001600160401b038111610982576000805160206139d483398151915290613209816132048454611a5d565b613056565b602080601f831160011461323c5750819061313c9394956000926127655750508160011b916000199060031b1c19161790565b90601f1983169561327c6000805160206139d48339815191526000527f5f9ce34815f8e11431c7bb75a8e6886a91478f7ffc1dbb0a98dc240fddd76b7590565b926000905b88821061329f575050836001959697106131a457505050811b019055565b80600185968294968601518155019501930190613281565b80548210156132cf5760005260206000200190600090565b634e487b7160e01b600052603260045260246000fd5b6132ed611a97565b80519081156132fd576020012090565b50507fa16a46d94261c7517cc8ff89f61c0ce93598e3c849801011dee649a6a557d10054801561332a5790565b507fc5d2460186f7233c927e7db2dcc703c0e500b653ca82273b7bfad8045d85a47090565b613357611b6d565b8051908115613367576020012090565b50507fa16a46d94261c7517cc8ff89f61c0ce93598e3c849801011dee649a6a557d10154801561332a5790565b60008061032d93602081519101845af43d156133d2573d916133b5836109ed565b926133c360405194856109bd565b83523d6000602085013e61362b565b60609161362b565b6001600160d01b03908181116133ee571690565b604490604051906306dfcc6560e41b825260d060048301526024820152fd5b906134174361296a565b6001600160d01b0391828061342b86612591565b1691160191821161084d5761343f92613857565b9091565b61344c4361296a565b906001600160d01b0390818061346061253c565b1691160190811161084d5761343f91613754565b61347d4361296a565b906001600160d01b0390818061349161253c565b169116900390811161084d5761343f91613754565b6109eb91906001600160a01b03908116801561351a575b6134ce6134c9846133da565b613474565b5050600090815260008051602061391483398151915260205260408120549080527fd4fb29e10204005f1a39963c6862b79a755e22f0177c53f05cdc3786c702f9745482169116612c45565b61352b613526846133da565b613443565b50506134bd565b906109eb91613543613526836133da565b50506001600160a01b039081169081156135a0575b6000805160206139148339815191526020527fd4fb29e10204005f1a39963c6862b79a755e22f0177c53f05cdc3786c702f97454600092835260409092205481169116612c45565b6135ac6134c9846133da565b5050613558565b6109eb92916001600160a01b03918216919081908315613618575b16918215613605575b6000526000805160206139148339815191526020528060406000205416916000526040600020541690612c45565b6136116134c9856133da565b50506135d7565b613624613526866133da565b50506135ce565b90613652575080511561364057602081519101fd5b60405163d6bda27560e01b8152600490fd5b81511580613685575b613663575090565b604051639996b31560e01b81526001600160a01b039091166004820152602490fd5b50803b1561365b565b600080516020613a14833981519152908154600160401b81101561098257600181018084558110156132cf57600092909252805160209091015160301b65ffffffffffff191665ffffffffffff9190911617600080516020613a948339815191529190910155565b8054600160401b81101561098257613713916001820181556132b7565b61373e57815160209092015160301b65ffffffffffff191665ffffffffffff92909216919091179055565b634e487b7160e01b600052600060045260246000fd5b600080516020613a1483398151915254919291801561382d5761377961379e916123ef565b600080516020613a14833981519152600052600080516020613a948339815191520190565b9081549165ffffffffffff9081841691831680831161381b578692036137e3576137dc92509065ffffffffffff82549181199060301b169116179055565b60301c9190565b5050613816906138026137f46109de565b65ffffffffffff9092168252565b6001600160d01b038516602082015261368e565b6137dc565b604051632520601d60e01b8152600490fd5b506138519061383d6137f46109de565b6001600160d01b038416602082015261368e565b60009190565b805492939280156138ee5761386e61387b916123ef565b8260005260206000200190565b9182549265ffffffffffff9182851692811680841161381b578793036138ba57506137dc92509065ffffffffffff82549181199060301b169116179055565b915050613816916138da6138cc6109de565b65ffffffffffff9093168352565b6001600160d01b03861660208301526136f6565b5090613851916138ff6138cc6109de565b6001600160d01b03851660208301526136f656fee8b26c30fad74198956032a3533d903385d56dd795af560196f9c78d4af40d0052c63247e1f47db19d5ce0460030c497f067ca4cebf71ba98eeadabe20bace03a16a46d94261c7517cc8ff89f61c0ce93598e3c849801011dee649a6a557d10252c63247e1f47db19d5ce0460030c497f067ca4cebf71ba98eeadabe20bace049016d09d72d40fdae2fd8ceac6b6234c7706214fd39c1cd1e609a0528c19930052c63247e1f47db19d5ce0460030c497f067ca4cebf71ba98eeadabe20bace02a16a46d94261c7517cc8ff89f61c0ce93598e3c849801011dee649a6a557d103360894a13ba1a3210667c828492db98dca3e2076cc3735a920a3ca505d382bbce8b26c30fad74198956032a3533d903385d56dd795af560196f9c78d4af40d02cd5ed15c6e187e77e9aee88184c21f4f2182ab5827cb3b7e07fbedcd63f033009b779b17422d0df92223018b32b4d1fa46e071723d6817e2486d003becc55f00f0c57e16840df040f15088dc2f81fe391c3923bec73e23a9662efc9c229c6a0088c46c62109817164d0ae1873830d4299a82e5daf552a3d8e989b27638fcf748a2646970667358221220f3f43e5c3fa9ec370ec873bc04fe723a16398da714c46bc2d36913e5e1784b2a64736f6c63430008180033","linkReferences":{}},"methodIdentifiers":{"CLOCK_MODE()":"4bf5d7e9","DOMAIN_SEPARATOR()":"3644e515","UPGRADE_INTERFACE_VERSION()":"ad3cb1cc","allowance(address,address)":"dd62ed3e","approve(address,uint256)":"095ea7b3","aqua()":"fe6a8705","balanceOf(address)":"70a08231","checkpoints(address,uint32)":"f1127ed8","clock()":"91ddadf4","convertToAqua(uint256)":"7079c95f","convertToArc(uint256)":"bd6af052","decimals()":"313ce567","delegate(address)":"5c19a95c","delegateBySig(address,uint256,uint256,uint8,bytes32,bytes32)":"c3cda520","delegates(address)":"587cde1e","eip712Domain()":"84b0196e","exchangeRate()":"3ba0b9a9","getPastTotalSupply(uint256)":"8e539e8c","getPastVotes(address,uint256)":"3a46b1a8","getVotes(address)":"9ab24eb0","initialize(string,string,address,address,address)":"db0ed6a0","name()":"06fdde03","nonces(address)":"7ecebe00","numCheckpoints(address)":"6fcfff45","owner()":"8da5cb5b","paused()":"5c975abb","permit(address,address,uint256,uint256,uint8,bytes32,bytes32)":"d505accf","pool()":"16f0115b","proxiableUUID()":"52d1902d","recoverLostTokens(address,address,uint256)":"61dec354","renounceOwnership()":"715018a6","setAqua(address)":"7591e825","setPause(bool)":"bedb86fb","setPool(address)":"4437152a","symbol()":"95d89b41","totalSupply()":"18160ddd","transfer(address,uint256)":"a9059cbb","transferFrom(address,address,uint256)":"23b872dd","transferOwnership(address)":"f2fde38b","unwrap(uint256,address)":"7647691d","upgradeToAndCall(address,bytes)":"4f1ef286","wrap(uint256,address)":"13bac820","wrapWithPermit(uint256,address,uint256,uint256,uint8,bytes32,bytes32)":"25ee1730"},"id":77}