{"abi":[{"type":"function","name":"UPGRADE_INTERFACE_VERSION","inputs":[],"outputs":[{"name":"","type":"string","internalType":"string"}],"stateMutability":"view"},{"type":"function","name":"accrue","inputs":[],"outputs":[{"name":"newIndex","type":"uint256","internalType":"uint256"}],"stateMutability":"nonpayable"},{"type":"function","name":"aqua","inputs":[],"outputs":[{"name":"","type":"address","internalType":"contract IAquaMON"}],"stateMutability":"view"},{"type":"function","name":"aquaToken","inputs":[],"outputs":[{"name":"","type":"address","internalType":"address"}],"stateMutability":"view"},{"type":"function","name":"arc","inputs":[],"outputs":[{"name":"","type":"address","internalType":"address"}],"stateMutability":"view"},{"type":"function","name":"arcToken","inputs":[],"outputs":[{"name":"","type":"address","internalType":"address"}],"stateMutability":"view"},{"type":"function","name":"convertToAssets","inputs":[{"name":"shares","type":"uint256","internalType":"uint256"}],"outputs":[{"name":"assetsOut","type":"uint256","internalType":"uint256"}],"stateMutability":"view"},{"type":"function","name":"convertToShares","inputs":[{"name":"assets","type":"uint256","internalType":"uint256"}],"outputs":[{"name":"shares","type":"uint256","internalType":"uint256"}],"stateMutability":"view"},{"type":"function","name":"deposit","inputs":[{"name":"assets","type":"uint256","internalType":"uint256"},{"name":"to","type":"address","internalType":"address"}],"outputs":[{"name":"shares","type":"uint256","internalType":"uint256"}],"stateMutability":"nonpayable"},{"type":"function","name":"dripPerBlock","inputs":[],"outputs":[{"name":"","type":"uint256","internalType":"uint256"}],"stateMutability":"view"},{"type":"function","name":"feeMgmtBps","inputs":[],"outputs":[{"name":"","type":"uint16","internalType":"uint16"}],"stateMutability":"view"},{"type":"function","name":"feePerfBps","inputs":[],"outputs":[{"name":"","type":"uint16","internalType":"uint16"}],"stateMutability":"view"},{"type":"function","name":"feeReceiver","inputs":[],"outputs":[{"name":"","type":"address","internalType":"address"}],"stateMutability":"view"},{"type":"function","name":"gaslessEnabled","inputs":[],"outputs":[{"name":"","type":"bool","internalType":"bool"}],"stateMutability":"view"},{"type":"function","name":"index","inputs":[],"outputs":[{"name":"","type":"uint256","internalType":"uint256"}],"stateMutability":"view"},{"type":"function","name":"initialize","inputs":[{"name":"owner_","type":"address","internalType":"address"},{"name":"underlying_","type":"address","internalType":"address"},{"name":"aqua_","type":"address","internalType":"address"},{"name":"forwarder_","type":"address","internalType":"address"},{"name":"dripPerBlock_","type":"uint256","internalType":"uint256"}],"outputs":[],"stateMutability":"nonpayable"},{"type":"function","name":"instantUnstakeEnabled","inputs":[],"outputs":[{"name":"","type":"bool","internalType":"bool"}],"stateMutability":"view"},{"type":"function","name":"lastAccrualBlock","inputs":[],"outputs":[{"name":"","type":"uint256","internalType":"uint256"}],"stateMutability":"view"},{"type":"function","name":"liquidityModule","inputs":[],"outputs":[{"name":"","type":"address","internalType":"address"}],"stateMutability":"view"},{"type":"function","name":"maxDeposit","inputs":[{"name":"","type":"address","internalType":"address"}],"outputs":[{"name":"","type":"uint256","internalType":"uint256"}],"stateMutability":"view"},{"type":"function","name":"maxDeposit_","inputs":[],"outputs":[{"name":"","type":"uint256","internalType":"uint256"}],"stateMutability":"view"},{"type":"function","name":"maxMint","inputs":[{"name":"","type":"address","internalType":"address"}],"outputs":[{"name":"","type":"uint256","internalType":"uint256"}],"stateMutability":"view"},{"type":"function","name":"maxMint_","inputs":[],"outputs":[{"name":"","type":"uint256","internalType":"uint256"}],"stateMutability":"view"},{"type":"function","name":"maxRedeem","inputs":[{"name":"owner_","type":"address","internalType":"address"}],"outputs":[{"name":"","type":"uint256","internalType":"uint256"}],"stateMutability":"view"},{"type":"function","name":"maxUnstakeQueue","inputs":[],"outputs":[{"name":"","type":"uint256","internalType":"uint256"}],"stateMutability":"view"},{"type":"function","name":"maxWithdraw","inputs":[{"name":"owner_","type":"address","internalType":"address"}],"outputs":[{"name":"","type":"uint256","internalType":"uint256"}],"stateMutability":"view"},{"type":"function","name":"mint","inputs":[{"name":"shares","type":"uint256","internalType":"uint256"},{"name":"to","type":"address","internalType":"address"}],"outputs":[{"name":"assets","type":"uint256","internalType":"uint256"}],"stateMutability":"nonpayable"},{"type":"function","name":"nextTicketId","inputs":[],"outputs":[{"name":"","type":"uint256","internalType":"uint256"}],"stateMutability":"view"},{"type":"function","name":"owner","inputs":[],"outputs":[{"name":"","type":"address","internalType":"address"}],"stateMutability":"view"},{"type":"function","name":"pause","inputs":[],"outputs":[],"stateMutability":"nonpayable"},{"type":"function","name":"paused","inputs":[],"outputs":[{"name":"","type":"bool","internalType":"bool"}],"stateMutability":"view"},{"type":"function","name":"pendingFees","inputs":[],"outputs":[{"name":"","type":"uint256","internalType":"uint256"}],"stateMutability":"view"},{"type":"function","name":"proxiableUUID","inputs":[],"outputs":[{"name":"","type":"bytes32","internalType":"bytes32"}],"stateMutability":"view"},{"type":"function","name":"recoverLostTokens","inputs":[{"name":"token","type":"address","internalType":"address"},{"name":"to","type":"address","internalType":"address"},{"name":"amount","type":"uint256","internalType":"uint256"}],"outputs":[],"stateMutability":"nonpayable"},{"type":"function","name":"redeem","inputs":[{"name":"shares","type":"uint256","internalType":"uint256"},{"name":"to","type":"address","internalType":"address"},{"name":"owner_","type":"address","internalType":"address"}],"outputs":[{"name":"assets","type":"uint256","internalType":"uint256"}],"stateMutability":"nonpayable"},{"type":"function","name":"relayManager","inputs":[],"outputs":[{"name":"","type":"address","internalType":"address"}],"stateMutability":"view"},{"type":"function","name":"renounceOwnership","inputs":[],"outputs":[],"stateMutability":"nonpayable"},{"type":"function","name":"safetyOracles","inputs":[{"name":"","type":"uint256","internalType":"uint256"}],"outputs":[{"name":"","type":"address","internalType":"address"}],"stateMutability":"view"},{"type":"function","name":"setArc","inputs":[{"name":"arc_","type":"address","internalType":"address"}],"outputs":[],"stateMutability":"nonpayable"},{"type":"function","name":"setConfig","inputs":[{"name":"aqua_","type":"address","internalType":"address"},{"name":"forwarder_","type":"address","internalType":"address"},{"name":"dripPerBlock_","type":"uint256","internalType":"uint256"}],"outputs":[],"stateMutability":"nonpayable"},{"type":"function","name":"setFeeParams","inputs":[{"name":"mgmtBps","type":"uint16","internalType":"uint16"},{"name":"perfBps","type":"uint16","internalType":"uint16"},{"name":"receiver","type":"address","internalType":"address"}],"outputs":[],"stateMutability":"nonpayable"},{"type":"function","name":"setGaslessEnabled","inputs":[{"name":"on","type":"bool","internalType":"bool"}],"outputs":[],"stateMutability":"nonpayable"},{"type":"function","name":"setLimits","inputs":[{"name":"maxDepositNew","type":"uint256","internalType":"uint256"},{"name":"maxMintNew","type":"uint256","internalType":"uint256"}],"outputs":[],"stateMutability":"nonpayable"},{"type":"function","name":"skimFees","inputs":[{"name":"amount","type":"uint256","internalType":"uint256"}],"outputs":[],"stateMutability":"nonpayable"},{"type":"function","name":"tickets","inputs":[{"name":"","type":"uint256","internalType":"uint256"}],"outputs":[{"name":"owner","type":"address","internalType":"address"},{"name":"shares","type":"uint256","internalType":"uint256"},{"name":"assetsQuoted","type":"uint256","internalType":"uint256"},{"name":"claimableAt","type":"uint64","internalType":"uint64"},{"name":"claimed","type":"bool","internalType":"bool"}],"stateMutability":"view"},{"type":"function","name":"totalAssets","inputs":[],"outputs":[{"name":"","type":"uint256","internalType":"uint256"}],"stateMutability":"view"},{"type":"function","name":"totalShares","inputs":[],"outputs":[{"name":"","type":"uint256","internalType":"uint256"}],"stateMutability":"view"},{"type":"function","name":"transferOwnership","inputs":[{"name":"newOwner","type":"address","internalType":"address"}],"outputs":[],"stateMutability":"nonpayable"},{"type":"function","name":"trustedForwarder","inputs":[],"outputs":[{"name":"","type":"address","internalType":"address"}],"stateMutability":"view"},{"type":"function","name":"underlying","inputs":[],"outputs":[{"name":"","type":"address","internalType":"contract IERC20"}],"stateMutability":"view"},{"type":"function","name":"unpause","inputs":[],"outputs":[],"stateMutability":"nonpayable"},{"type":"function","name":"unstakeCooldown","inputs":[],"outputs":[{"name":"","type":"uint256","internalType":"uint256"}],"stateMutability":"view"},{"type":"function","name":"upgradeToAndCall","inputs":[{"name":"newImplementation","type":"address","internalType":"address"},{"name":"data","type":"bytes","internalType":"bytes"}],"outputs":[],"stateMutability":"payable"},{"type":"function","name":"validatorRegistry","inputs":[],"outputs":[{"name":"","type":"address","internalType":"address"}],"stateMutability":"view"},{"type":"function","name":"withdraw","inputs":[{"name":"assets","type":"uint256","internalType":"uint256"},{"name":"to","type":"address","internalType":"address"},{"name":"owner_","type":"address","internalType":"address"}],"outputs":[{"name":"shares","type":"uint256","internalType":"uint256"}],"stateMutability":"nonpayable"},{"type":"event","name":"Deposited","inputs":[{"name":"user","type":"address","indexed":true,"internalType":"address"},{"name":"assets","type":"uint256","indexed":false,"internalType":"uint256"},{"name":"shares","type":"uint256","indexed":false,"internalType":"uint256"},{"name":"to","type":"address","indexed":true,"internalType":"address"}],"anonymous":false},{"type":"event","name":"FeesSkimmed","inputs":[{"name":"to","type":"address","indexed":true,"internalType":"address"},{"name":"assets","type":"uint256","indexed":false,"internalType":"uint256"}],"anonymous":false},{"type":"event","name":"IndexUpdated","inputs":[{"name":"oldIndex","type":"uint256","indexed":false,"internalType":"uint256"},{"name":"newIndex","type":"uint256","indexed":false,"internalType":"uint256"}],"anonymous":false},{"type":"event","name":"Initialized","inputs":[{"name":"version","type":"uint64","indexed":false,"internalType":"uint64"}],"anonymous":false},{"type":"event","name":"OwnershipTransferred","inputs":[{"name":"previousOwner","type":"address","indexed":true,"internalType":"address"},{"name":"newOwner","type":"address","indexed":true,"internalType":"address"}],"anonymous":false},{"type":"event","name":"ParamsUpdated","inputs":[{"name":"key","type":"bytes32","indexed":false,"internalType":"bytes32"},{"name":"oldVal","type":"uint256","indexed":false,"internalType":"uint256"},{"name":"newVal","type":"uint256","indexed":false,"internalType":"uint256"}],"anonymous":false},{"type":"event","name":"Paused","inputs":[{"name":"account","type":"address","indexed":false,"internalType":"address"}],"anonymous":false},{"type":"event","name":"Unpaused","inputs":[{"name":"account","type":"address","indexed":false,"internalType":"address"}],"anonymous":false},{"type":"event","name":"Upgraded","inputs":[{"name":"implementation","type":"address","indexed":true,"internalType":"address"}],"anonymous":false},{"type":"event","name":"Withdrawn","inputs":[{"name":"user","type":"address","indexed":true,"internalType":"address"},{"name":"shares","type":"uint256","indexed":false,"internalType":"uint256"},{"name":"assets","type":"uint256","indexed":false,"internalType":"uint256"},{"name":"to","type":"address","indexed":true,"internalType":"address"}],"anonymous":false},{"type":"error","name":"AddressEmptyCode","inputs":[{"name":"target","type":"address","internalType":"address"}]},{"type":"error","name":"ERC1967InvalidImplementation","inputs":[{"name":"implementation","type":"address","internalType":"address"}]},{"type":"error","name":"ERC1967NonPayable","inputs":[]},{"type":"error","name":"EnforcedPause","inputs":[]},{"type":"error","name":"ExceedsLimit","inputs":[]},{"type":"error","name":"ExpectedPause","inputs":[]},{"type":"error","name":"FailedCall","inputs":[]},{"type":"error","name":"InsufficientShares","inputs":[]},{"type":"error","name":"InvalidConfig","inputs":[]},{"type":"error","name":"InvalidInitialization","inputs":[]},{"type":"error","name":"InvalidReceiver","inputs":[]},{"type":"error","name":"NotInitializing","inputs":[]},{"type":"error","name":"NotOwnerOfShares","inputs":[]},{"type":"error","name":"OwnableInvalidOwner","inputs":[{"name":"owner","type":"address","internalType":"address"}]},{"type":"error","name":"OwnableUnauthorizedAccount","inputs":[{"name":"account","type":"address","internalType":"address"}]},{"type":"error","name":"ReentrancyGuardReentrantCall","inputs":[]},{"type":"error","name":"SafeERC20FailedOperation","inputs":[{"name":"token","type":"address","internalType":"address"}]},{"type":"error","name":"UUPSUnauthorizedCallContext","inputs":[]},{"type":"error","name":"UUPSUnsupportedProxiableUUID","inputs":[{"name":"slot","type":"bytes32","internalType":"bytes32"}]},{"type":"error","name":"ZeroAmount","inputs":[]}],"bytecode":{"object":"0x60a0806040523461002a573060805261238b9081610030823960805181818161156201526116a90152f35b600080fdfe608060408181526004918236101561001657600080fd5b600092833560e01c91826301e1d11414611bbe5750816307a2d13a14611b9e57816311cfb80314611b7a5781631f46eaae14611b5b578163224438d114611b3c57816322de3ca2146119a75781632986c0e5146119885781633a98ef391461196a5781633f4ba83a146118f2578163400b6cdc146118c9578163402d267d146118985781634b1c6a40146108255781634f1ef2861461162d57816350b44712146115c657816352d1902d1461154d57816355b5d88b1461152457816356c987c21461149c5781635c975abb1461146b5781636031a52f1461144c57816361dec354146113bd57816366bbb0a9146113245781636e553f65146112135781636f307dc3146111eb578163715018a6146111815781637da0a877146111585781637eefd5ae146111395781638456cb59146110d157816386b314051461107a5781638b4be1e11461105b5781638da5cb5b14611025578163902835f614610f4357816394bf804d14610dbe578163acb4d8a714610d9f578163ad3cb1cc14610d00578163b3f0067414610cd3578163b460af9414610b5e578163ba087652146109cf578163bb0017ca14610852578163c011267814610825578163c4590d3f146107a6578163c63d75b61461076c578163c6e6f5921461074c578163cb73143a14610726578163cc5ecd8514610703578163ce96cb7714610664578163d2a6e87514610645578163d905777e146105a9578163eeb8c5911461058a578163eee2208414610566578163f007c40c1461053d578163f2fde38b14610512578163f376ebbb146104e9578163f7013ef6146102d857508063f8ba4cff146102ad5763fe6a87051461028257600080fd5b346102a957816003193601126102a95760015490516001600160a01b039091168152602090f35b5080fd5b50346102a957816003193601126102a9576020906102c9611ed2565b6102d1611f2d565b9051908152f35b9050346104e55760a03660031901126104e5576102f3611bf5565b6102fb611c0b565b91610304611bda565b926064356001600160a01b0381811692918390036104e1577ff0c57e16840df040f15088dc2f81fe391c3923bec73e23a9662efc9c229c6a009586549560ff878a1c16159567ffffffffffffffff8816978815806104da575b6001809a1490816104d0575b1590816104c7575b506104b85767ffffffffffffffff19811689178a5587610499575b5083821615801561048f575b8015610485575b61047757506103bd906103b0612231565b6103b8612231565b611daf565b6103c5612231565b6103cd612231565b6103d5612231565b6103dd612231565b8560008051602061231683398151915255816bffffffffffffffffffffffff60a01b9316838a541617895516818554161784556002541617600255608435600755670de0b6b3a764000060055543600655610436578380f35b7fc7f505b2f371ae2175ee4913f4499e1f2633a7b5936321eed1cdaeb6115181d29260209268ff000000000000000019815416905551908152a13880808380f35b89516306b7c75960e31b8152fd5b508383161561039f565b5083851615610398565b68ffffffffffffffffff1916680100000000000000011789553861038c565b50895163f92ee8a960e01b8152fd5b90501538610371565b303b159150610369565b508761035d565b8780fd5b8280fd5b5050346102a957816003193601126102a957600d5490516001600160a01b039091168152602090f35b833461053a57602036600319011261053a5761053761052f611bf5565b6103b8611e56565b80f35b80fd5b5050346102a957816003193601126102a95760015490516001600160a01b039091168152602090f35b5050346102a957816003193601126102a95760209060ff6015541690519015158152f35b5050346102a957816003193601126102a9576020906007549051908152f35b8383346102a957602092836003193601126104e557836105c7611bf5565b6001548451633d7ad0b760e21b81526001600160a01b039283169481019490945283916024918391165afa92831561063a578093610608575b505051908152f35b909192508382813d8311610633575b6106218183611c4b565b8101031261053a575051908380610600565b503d610617565b8251903d90823e3d90fd5b5050346102a957816003193601126102a957602090600b549051908152f35b9050346104e5576020928360031936011261053a5783610682611bf5565b6001548551633d7ad0b760e21b81526001600160a01b039283169581019590955284916024918391165afa9081156106f85780916106c6575b506102d19150611cf3565b90508382813d83116106f1575b6106dd8183611c4b565b8101031261053a57506102d19051386106bb565b503d6106d3565b8351903d90823e3d90fd5b5050346102a957816003193601126102a95760209061ffff600854169051908152f35b5050346102a957816003193601126102a95760209061ffff600c5460081c169051908152f35b82843461053a57602036600319011261053a57506102d160209235611d49565b5050346102a95760203660031901126102a95760209161078a611bf5565b5050600b54806107a05750600019905b51908152f35b9061079a565b9050346104e557816003193601126104e557606091829135602435906107ca611e56565b600a549080600a55835191691b585e11195c1bdcda5d60b21b8352602083015283820152600080516020612336833981519152948591a1600b549181600b55805192661b585e135a5b9d60ca1b84526020840152820152a180f35b5050346102a957816003193601126102a957600c54905160189190911c6001600160a01b03168152602090f35b8383346102a9576020806003193601126104e5578335610870611ed2565b610878611e56565b60085460101c6001600160a01b039081169586156109c157821580156109b6575b6109a857855485516370a0823160e01b81523081840152908316918582602481865afa91821561099e57889261096f575b506108d785600354611d19565b916108e56009548094611d3c565b1161093657507f65f728afb7f35579036d04d25137fc7b673769b6331abb954e4eb46b25dee9d99596976109269261091e868094611d3c565b600955611e8f565b60085460101c169351908152a280f35b865162461bcd60e51b8152908101869052601360248201527234b739bab33334b1b4b2b73a10313ab33332b960691b6044820152606490fd5b9091508581813d8311610997575b6109878183611c4b565b810103126104e1575190896108ca565b503d61097d565b87513d8a823e3d90fd5b8451631f2a200560e01b8152fd5b506009548311610899565b8451631e4ec46b60e01b8152fd5b919050346104e5576109e036611cbe565b6109ec94919294611ed2565b6109f4611efd565b8415610b4f576001600160a01b0383811693908415610b3f57610a15611f2d565b50610a1e611fd9565b9781808516991694898603610b315782600154169988519a8b91633d7ad0b760e21b83528383015281602460209d8e935afa908115610b2757908a918491610af6575b5010610ae857507fbc0fb706d03a6cb96fbe31862998338850cd01d239a360045dbe469d548e42189387938993610ac593610aa6610a9e87611cf3565b9c8d9561217e565b610ab284600354611d3c565b600355610abd6120df565b505416611e8f565b81519081528688820152a360016000805160206123168339815191525551908152f35b8751633999656760e01b8152fd5b8092508c8092503d8311610b20575b610b0f8183611c4b565b810103126104e55789905138610a61565b503d610b05565b89513d85823e3d90fd5b875163c909066360e01b8152fd5b8551631e4ec46b60e01b81528490fd5b508251631f2a200560e01b8152fd5b919050346104e557610b6f36611cbe565b9091610b79611ed2565b610b81611efd565b8015610cc3576001600160a01b0383811693908415610cb357610ba2611f2d565b50610bab611fd9565b9781808616991694898603610ca357610bc385611d49565b9883600154169a89519b8c91633d7ad0b760e21b83528383015281602460209e8f935afa908115610c9957908b918591610c64575b5010610c5657509387938193610c3393610aa68c7fbc0fb706d03a6cb96fbe31862998338850cd01d239a360045dbe469d548e42189961217e565b81519087825288820152a360016000805160206123168339815191525551908152f35b8851633999656760e01b8152fd5b8092508d8092503d8311610c92575b610c7d8183611c4b565b81010312610c8e578a905138610bf8565b8380fd5b503d610c73565b8a513d86823e3d90fd5b875163c909066360e01b81528990fd5b8551631e4ec46b60e01b81528790fd5b50505051631f2a200560e01b8152fd5b5050346102a957816003193601126102a957600854905160109190911c6001600160a01b03168152602090f35b9050346104e557826003193601126104e5578151908282019082821067ffffffffffffffff831117610d8c5750825260058152602090640352e302e360dc1b6020820152825193849260208452825192836020860152825b848110610d7657505050828201840152601f01601f19168101030190f35b8181018301518882018801528795508201610d58565b634e487b7160e01b855260419052602484fd5b5050346102a957816003193601126102a9576020906014549051908152f35b8383346102a957806003193601126102a957823591610ddb611c0b565b92610de4611ed2565b610dec611efd565b8015610f33576001600160a01b0393808516928315610f2357610e0d611f2d565b50600b548015159081610f19575b50610f0957610e2c60055484611e23565b670de0b6b3a76400009081810190818111610ef657670de0b6b3a763ffff01908111610ee35760209850847fa49637e3f6491de6c2c23c5006bef69df603d0dba9d65c8b756fe46ac29810b994610e9989958b95610ead95049b8c915416610e92611fd9565b309161200d565b610ea58a600354611d19565b600355612066565b610eb56120df565b50610ebe611fd9565b169281519087825288820152a360016000805160206123168339815191525551908152f35b634e487b7160e01b835260118952602483fd5b634e487b7160e01b845260118a52602484fd5b8451632795088960e11b81528790fd5b9050831188610e1b565b8451631e4ec46b60e01b81528790fd5b8251631f2a200560e01b81528590fd5b919050346104e557610f5436611c89565b9291610f5e611e56565b6001600160a01b039081169485156110175786606080888888888489600154926002549160075497816bffffffffffffffffffffffff60a01b9382858916176001551680938516176002558760075581875196636171756160e01b885216602087015286860152600080516020612336833981519152809a8196a1855192683337b93bb0b93232b960b91b845216602083015284820152a18051926b64726970506572426c6f636b60a01b84526020840152820152a180f35b83516306b7c75960e31b8152fd5b5050346102a957816003193601126102a9576000805160206122d68339815191525490516001600160a01b039091168152602090f35b5050346102a957816003193601126102a957602090600a549051908152f35b9050346104e55760203660031901126104e557356010548110156104e55760106020935260018060a01b03907f1b6847dc741a1b0cd08d278845f9d819d87b734759afb55fe2de5cb82a9ae6720154169051908152f35b5050346102a957816003193601126102a95760207f62e78cea01bee320cd4e420270b5ea74000d11b0c9f74754ebdbfc544b05a2589161110f611e56565b611117611ed2565b6000805160206122f6833981519152805460ff1916600117905551338152a180f35b5050346102a957816003193601126102a9576020906013549051908152f35b5050346102a957816003193601126102a95760025490516001600160a01b039091168152602090f35b833461053a578060031936011261053a5761119a611e56565b6000805160206122d683398151915280546001600160a01b0319811690915581906001600160a01b03167f8be0079c531659141344cd1fd0a4f28419497f9722a3daafe3b4186f6b6457e08280a380f35b5050346102a957816003193601126102a957905490516001600160a01b039091168152602090f35b919050346104e557806003193601126104e557813591611231611c0b565b9261123a611ed2565b611242611efd565b8015611315576001600160a01b03938085169283156109c157611263611f2d565b50600a54801515908161130b575b506112fd575083856112c76020987fa49637e3f6491de6c2c23c5006bef69df603d0dba9d65c8b756fe46ac29810b9946112bb876112ae81611d49565b9b8c945416610e92611fd9565b610ea587600354611d19565b6112cf6120df565b506112d8611fd9565b169281519081528688820152a360016000805160206123168339815191525551908152f35b8451632795088960e11b8152fd5b9050831138611271565b509051631f2a200560e01b8152fd5b9050346104e55760203660031901126104e55735801515808203610c8e576000805160206123368339815191529260609261135d611e56565b600c5460ff8116156113b45760ff6001945b169060ff191617600c556000146113ac5760ff60015b818351946d19d85cdb195cdcd15b98589b195960921b86521660208501521690820152a180f35b60ff85611385565b60ff879461136f565b8383346102a9576113cd36611c89565b926113d9929192611e56565b84546001600160a01b0392831692908116831490811561143e575b811561141b575b5061140c5750610537939450611e8f565b516306b7c75960e31b81528590fd5b600c5460181c16801515915081611434575b50876113fb565b905082148761142d565b6001548116841491506113f4565b5050346102a957816003193601126102a9576020906012549051908152f35b5050346102a957816003193601126102a95760209060ff6000805160206122f6833981519152541690519015158152f35b5050346102a95760203660031901126102a9576060600080516020612336833981519152916114c9611bf5565b906114d2611e56565b600c80546301000000600160b81b03198116601885811b6301000000600160b81b03169190911790925582516261726360e81b8152911c6001600160a01b03908116602083015290921690820152a180f35b5050346102a957816003193601126102a957600f5490516001600160a01b039091168152602090f35b82843461053a578060031936011261053a57507f00000000000000000000000000000000000000000000000000000000000000006001600160a01b031630036115b957602090517f360894a13ba1a3210667c828492db98dca3e2076cc3735a920a3ca505d382bbc8152f35b5163703e46dd60e11b8152fd5b9050346104e55760203660031901126104e5578160a09360ff92358152601160205220600180851b03815416926001820154916003600282015491015492825195865260208601528185015267ffffffffffffffff821660608501521c1615156080820152f35b918091506003193601126104e557611643611bf5565b90602493843567ffffffffffffffff81116102a957366023820112156102a9578085013561167081611c6d565b9461167d85519687611c4b565b81865260209182870193368a8383010111611894578186928b8693018737880101526001600160a01b037f00000000000000000000000000000000000000000000000000000000000000008116308114908115611866575b50611856576116e2611e56565b81169585516352d1902d60e01b815283818a818b5afa869181611823575b5061171c575050505050505191634c9c8ce360e01b8352820152fd5b9088888894938c7f360894a13ba1a3210667c828492db98dca3e2076cc3735a920a3ca505d382bbc9182810361180e5750853b156117fa575080546001600160a01b031916821790558451889392917fbc7cd75a20ee27fd9adebab32041f755214dbc6bffa90cc0225b39da2e5c2d3b8580a28251156117dc5750506117ce9582915190845af4913d156117d2573d6117c06117b782611c6d565b92519283611c4b565b81528581943d92013e612272565b5080f35b5060609250612272565b9550955050505050346117ee57505080f35b63b398979f60e01b8152fd5b8651634c9c8ce360e01b8152808501849052fd5b8751632a87526960e21b815280860191909152fd5b9091508481813d831161184f575b61183b8183611c4b565b8101031261184b57519038611700565b8680fd5b503d611831565b855163703e46dd60e11b81528890fd5b9050817f360894a13ba1a3210667c828492db98dca3e2076cc3735a920a3ca505d382bbc54161415386116d5565b8580fd5b5050346102a95760203660031901126102a9576020916118b6611bf5565b5050600a54806107a05750516000198152f35b5050346102a957816003193601126102a957600e5490516001600160a01b039091168152602090f35b9050346104e557826003193601126104e55761190c611e56565b6000805160206122f68339815191529081549060ff82161561195c575060ff19169055513381527f5db9ee0a495bf2e6ff9c91a7834c1ba4fdd244a5e8aa4e537bd38aeae4b073aa90602090a180f35b8351638dfc202b60e01b8152fd5b9050346104e557826003193601126104e55760209250549051908152f35b5050346102a957816003193601126102a9576020906005549051908152f35b919050346104e55760603660031901126104e557813561ffff92838216809203611b3857602435938085169485810361184b576119e2611bda565b926119eb611e56565b6107d0808611611b06578711611ad357509160609593918680969460085496865193696665654d676d7442707360b01b855280891660208601528688860152600080516020612336833981519152809b8196a162ffff00600c549360081b1662ffff0019841617600c55875192696665655065726642707360b01b845260081c16602083015286820152a16001600160b01b031984168217601082811b62010000600160b01b03169190911760085583516a3332b2a932b1b2b4bb32b960a91b815261ffff1990951690921790911c6001600160a01b0390811660208501521690820152a180f35b606490602087519162461bcd60e51b8352820152600d60248201526c0e0cae4cc40e8dede40d0d2ced609b1b6044820152fd5b865162461bcd60e51b8152602081840152600c60248201526b0cccaca40e8dede40d0d2ced60a31b6044820152606490fd5b8480fd5b5050346102a957816003193601126102a9576020906009549051908152f35b5050346102a957816003193601126102a9576020906006549051908152f35b5050346102a957816003193601126102a95760209060ff600c541690519015158152f35b82843461053a57602036600319011261053a57506102d160209235611cf3565b8490346102a957816003193601126102a9576020906003548152f35b604435906001600160a01b0382168203611bf057565b600080fd5b600435906001600160a01b0382168203611bf057565b602435906001600160a01b0382168203611bf057565b67ffffffffffffffff8111611c3557604052565b634e487b7160e01b600052604160045260246000fd5b90601f8019910116810190811067ffffffffffffffff821117611c3557604052565b67ffffffffffffffff8111611c3557601f01601f191660200190565b6060906003190112611bf0576001600160a01b03906004358281168103611bf057916024359081168103611bf0579060443590565b6060906003190112611bf057600435906001600160a01b03906024358281168103611bf057916044359081168103611bf05790565b8015611d1357611d0f670de0b6b3a76400009160055490611e23565b0490565b50600090565b91908201809211611d2657565b634e487b7160e01b600052601160045260246000fd5b91908203918211611d2657565b8015611d1357600454600090611d5d575090565b919060055490670de0b6b3a764000080820291820403611d9b5781611d8191611d19565b6000198101908111611d9b57611d98929350611e36565b90565b634e487b7160e01b84526011600452602484fd5b6001600160a01b03908116908115611e0a576000805160206122d683398151915280546001600160a01b031981168417909155167f8be0079c531659141344cd1fd0a4f28419497f9722a3daafe3b4186f6b6457e0600080a3565b604051631e4fbdf760e01b815260006004820152602490fd5b81810292918115918404141715611d2657565b8115611e40570490565b634e487b7160e01b600052601260045260246000fd5b6000805160206122d6833981519152546001600160a01b03163303611e7757565b60405163118cdaa760e01b8152336004820152602490fd5b60405163a9059cbb60e01b60208201526001600160a01b03929092166024830152604480830193909352918152611ed091611ecb606483611c4b565b6121d5565b565b60ff6000805160206122f68339815191525416611eeb57565b60405163d93c066560e01b8152600490fd5b6000805160206123168339815191526002815414611f1b5760029055565b604051633ee5aeb560e01b8152600490fd5b600654804314611fca57611f419043611d3c565b43600655600754908115611fd157611f5891611e23565b8015611fca5760009061ffff6008541680611fab575b50611f7c82611f8492611d3c565b600354611d19565b60035580611f96575b50611d986120df565b611fa290600954611d19565b60095538611f8d565b819250612710611fc1611f7c92611f8494611e23565b04929150611f6e565b5060055490565b505060055490565b6002546001600160a01b0316331480612002575b15611ffe5736601319013560601c90565b3390565b506014361015611fed565b6040516323b872dd60e01b60208201526001600160a01b03928316602482015292909116604483015260648083019390935291815260a081019181831067ffffffffffffffff841117611c3557611ed0926040526121d5565b61207282600454611d19565b6004556001546001600160a01b031691823b15611bf0576040516329460cc560e11b81526001600160a01b0390921660048301526024820152906000908290818381604481015b03925af180156120d3576120ca5750565b611ed090611c21565b6040513d6000823e3d90fd5b60055460045460008161213b575050670de0b6b3a7640000905b81600555808203612108575090565b60407fc1756e760256c59a9c24ebaf7412f526bb6455cc4b44b0d4a99ce2200c7772a5918151908152836020820152a190565b60035490670de0b6b3a76400009182810292818404149015171561216a57509061216491611e36565b906120f9565b634e487b7160e01b81526011600452602490fd5b61218a82600454611d3c565b6004556001546001600160a01b031691823b15611bf057604051633b9e9f0160e21b81526001600160a01b0390921660048301526024820152906000908290818381604481016120b9565b906000602091828151910182855af1156120d3576000513d61222857506001600160a01b0381163b155b6122065750565b604051635274afe760e01b81526001600160a01b039091166004820152602490fd5b600114156121ff565b60ff7ff0c57e16840df040f15088dc2f81fe391c3923bec73e23a9662efc9c229c6a005460401c161561226057565b604051631afcd79f60e31b8152600490fd5b90612299575080511561228757602081519101fd5b60405163d6bda27560e01b8152600490fd5b815115806122cc575b6122aa575090565b604051639996b31560e01b81526001600160a01b039091166004820152602490fd5b50803b156122a256fe9016d09d72d40fdae2fd8ceac6b6234c7706214fd39c1cd1e609a0528c199300cd5ed15c6e187e77e9aee88184c21f4f2182ab5827cb3b7e07fbedcd63f033009b779b17422d0df92223018b32b4d1fa46e071723d6817e2486d003becc55f006971b4f0b6ef70b5d9551beb71d4864d6d983119e809e7db05d264fee1134d8ba264697066735822122070b39a923e0b2a43953df3d6334b538b3b9cba97c59b76ad3d4420cb07749aa264736f6c63430008180033","linkReferences":{}},"methodIdentifiers":{"UPGRADE_INTERFACE_VERSION()":"ad3cb1cc","accrue()":"f8ba4cff","aqua()":"fe6a8705","aquaToken()":"f007c40c","arc()":"4b1c6a40","arcToken()":"c0112678","convertToAssets(uint256)":"07a2d13a","convertToShares(uint256)":"c6e6f592","deposit(uint256,address)":"6e553f65","dripPerBlock()":"eeb8c591","feeMgmtBps()":"cc5ecd85","feePerfBps()":"cb73143a","feeReceiver()":"b3f00674","gaslessEnabled()":"11cfb803","index()":"2986c0e5","initialize(address,address,address,address,uint256)":"f7013ef6","instantUnstakeEnabled()":"eee22084","lastAccrualBlock()":"1f46eaae","liquidityModule()":"400b6cdc","maxDeposit(address)":"402d267d","maxDeposit_()":"8b4be1e1","maxMint(address)":"c63d75b6","maxMint_()":"d2a6e875","maxRedeem(address)":"d905777e","maxUnstakeQueue()":"acb4d8a7","maxWithdraw(address)":"ce96cb77","mint(uint256,address)":"94bf804d","nextTicketId()":"6031a52f","owner()":"8da5cb5b","pause()":"8456cb59","paused()":"5c975abb","pendingFees()":"224438d1","proxiableUUID()":"52d1902d","recoverLostTokens(address,address,uint256)":"61dec354","redeem(uint256,address,address)":"ba087652","relayManager()":"55b5d88b","renounceOwnership()":"715018a6","safetyOracles(uint256)":"86b31405","setArc(address)":"56c987c2","setConfig(address,address,uint256)":"902835f6","setFeeParams(uint16,uint16,address)":"22de3ca2","setGaslessEnabled(bool)":"66bbb0a9","setLimits(uint256,uint256)":"c4590d3f","skimFees(uint256)":"bb0017ca","tickets(uint256)":"50b44712","totalAssets()":"01e1d114","totalShares()":"3a98ef39","transferOwnership(address)":"f2fde38b","trustedForwarder()":"7da0a877","underlying()":"6f307dc3","unpause()":"3f4ba83a","unstakeCooldown()":"7eefd5ae","upgradeToAndCall(address,bytes)":"4f1ef286","validatorRegistry()":"f376ebbb","withdraw(uint256,address,address)":"b460af94"},"id":82}